:302106C
:100000000C94DE170C9409180C9409180C94091818
:100010000C9409180C9409180C9409180C940918DC
:100020000C9409180C9415A00C9409180C94091838
:100030000C9409180C943D9F0C9409180C94091801
:100040000C9493950C941C960C94ECEC0C9409185D
:100050000C94BB710C94F2710C9409180C9409184F
:100060000C9409180C9409180C9409180C9409188C
:100070000C9409180C9409180C9409180C9409187C
:100080000C9409180C9409180C940918000001002C
:100090001300120015001C00FFFF170016001500CA
:1000A0001A00FFFF0C000D0015001F00FFFFFFFFEF
:1000B000FFFF0F0004000E000A000B0015000A00ED
:1000C0000B001500040002000100556E6B6E6F7787
:1000D0006E20636F6D6D616E643A00536574204DE0
:1000E0006963726F7374657070696E6700436F6ED9
:1000F00066696775726174696F6E20726573657485
:1001000020746F2064656661756C74732E00436F94
:100110006E66696775726174696F6E206C6F616479
:1001200065642066726F6D20454550524F4D2E001C
:10013000436F6E66696775726174696F6E20737460
:100140006F72656420746F20454550524F4D2E00EC
:100150006C696E656172204C3A002C206D6F76657B
:10016000206166746572203D20002C206261636B03
:10017000736C617368203D20002C2072657472617D
:100180006374203D20006D696E2064697374616E34
:100190006365203D20004F50532066617374206DCD
:1001A0006F64653A004F505320636C6173736963E9
:1001B000206D6F64653A004F50532064697361622B
:1001C0006C6564002C2073706565643D00206C696B
:1001D0006E6561722073746570733A00205A4A65C7
:1001E000726B3A004A65726B3A004C20004820005E
:1001F0007A5F6D696E3A004C2000482000795F6D8F
:10020000696E3A004C2000482000785F6D696E3AB4
:1002100000206D696E0020686F7572732000206485
:1002200061797320005072696E74696E6720746919
:100230006D653A00206D005072696E7465642066C9
:10024000696C616D656E743A004649524D57415272
:10025000455F4E414D453A3344437562655F3130E9
:1002600036204649524D574152455F55524C3A68E7
:100270007474703A2F2F7777772E70696361736F7C
:100280002D33642E72752050524F544F434F4C5FA4
:1002900056455253494F4E3A312E30204D41434836
:1002A000494E455F545950453A3344437562655F42
:1002B0003330322045585452554445525F434F55D0
:1002C0004E543A322052455045544945525F50529F
:1002D0004F544F434F4C3A3200CFF0EEE3F0E5E29B
:1002E00020F1F2EEEBE000CFF0EEE3F0E5E220F1FA
:1002F000EEEFEBE00020746F2000536574206F7503
:10030000747075742000652D3E7A4F66667365744F
:10031000203D2000486F6D65205A00486F6D6520B4
:100320005900486F6D65205800466C6F774D756CAD
:100330007469706C793A0053706565644D756C74BE
:1003400069706C793A003A002040003A002054006D
:1003500020403A0020423A00543A0020453A00201A
:100360005A3A0020593A00583A00616476616E6347
:1003700065204C205B303D6F66665D006578747269
:100380007564657220636F6F6C657220737065654C
:1003900064205B302D3235355D0064697374616EA5
:1003A000636520746F20726574726163742077686E
:1003B000656E2068656174696E67205B6D6D5D00B8
:1003C00074656D702E20666F722072657472616341
:1003D00074696F6E207768656E2068656174696EF8
:1003E00067205B435D0074656D702E2073746162DD
:1003F000696C697A652074696D65205B735D00596D
:100400002D6F6666736574205B73746570735D0031
:10041000582D6F6666736574205B73746570735DC9
:1004200000504944206D61782076616C7565205BD1
:10043000302D3235355D0050494420442D676169C7
:100440006E0050494420492D6761696E005049444F
:1004500020502D6761696E005049442064726976AE
:1004600065206D696E00504944206472697665208C
:100470006D61780068656174206D616E6167657299
:10048000205B302D315D00616363656C6572617462
:10049000696F6E205B6D6D2F735E325D00737461EA
:1004A0007274206665656472617465205B6D6D2F82
:1004B000735D006D61782E20666565647261746598
:1004C000205B6D6D2F735D007374657073207065B4
:1004D00072206D6D0042656420504944206D617842
:1004E0002076616C7565205B302D3235355D0042BC
:1004F00065642050494420442D6761696E0042655F
:10050000642050494420492D6761696E004265644A
:100510002050494420502D6761696E004265642077
:10052000504944206472697665206D696E004265A9
:100530006420504944206472697665206D617800BA
:100540004265642048656174204D616E6167657223
:10055000205B302D325D004F505320726574726104
:100560006374696F6E206261636B6C617368205B9A
:100570006D6D5D004F5053207265747261637469D4
:100580006F6E206C656E677468205B6D6D5D004FEB
:100590005053206D696E2E2064697374616E6365BB
:1005A00020666F722066696C2E20726574726163BA
:1005B00074696F6E205B6D6D5D004F5053206D6FE1
:1005C0007665206166746572207825207265747284
:1005D000616374205B255D004F5053206F7065721E
:1005E0006174696F6E206D6F6465205B303D4F668E
:1005F000662C313D436C61737369632C323D4661F7
:1006000073745D005A2D6178697320747261766528
:100610006C20616363656C65726174696F6E205BE9
:100620006D6D2F735E325D00592D61786973207492
:10063000726176656C20616363656C657261746973
:100640006F6E205B6D6D2F735E325D00582D61788B
:1006500069732074726176656C20616363656C6593
:10066000726174696F6E205B6D6D2F735E325D0019
:100670005A2D6178697320616363656C657261747A
:10068000696F6E205B6D6D2F735E325D00592D6159
:1006900078697320616363656C65726174696F6EFC
:1006A000205B6D6D2F735E325D00582D617869732C
:1006B00020616363656C65726174696F6E205B6D48
:1006C0006D2F735E325D005920736F706C6920323C
:1006D000205B6D6D5D005820736F706C6920322057
:1006E0005B6D6D5D005A20636F7272656374696F34
:1006F0006E205B6D6D5D005A206D6178206C656EBB
:10070000677468205B6D6D5D0059206D6178206CA9
:10071000656E677468205B6D6D5D0058206D617853
:10072000206C656E677468205B6D6D5D005A206893
:100730006F6D6520706F73205B6D6D5D0059206873
:100740006F6D6520706F73205B6D6D5D0058206864
:100750006F6D6520706F73205B6D6D5D004D61780E
:100760002E205A2D6A65726B205B6D6D2F735D00B4
:100770004D61782E206A65726B205B6D6D2F735D05
:10078000005A2D6178697320686F6D696E67206605
:1007900065656472617465205B6D6D2F735D0059D2
:1007A0002D6178697320686F6D696E672066656575
:1007B0006472617465205B6D6D2F735D00582D61EF
:1007C00078697320686F6D696E672066656564720D
:1007D000617465205B6D6D2F735D005A2D617869C2
:1007E00073206D61782E2066656564726174652082
:1007F0005B6D6D2F735D00592D61786973206D619C
:10080000782E206665656472617465205B6D6D2F5E
:10081000735D00582D61786973206D61782E2066B4
:1008200065656472617465205B6D6D2F735D005A40
:100830002D61786973207374657073207065722000
:100840006D6D00592D617869732073746570732024
:10085000706572206D6D00582D6178697320737416
:1008600065707320706572206D6D005072696E74D2
:10087000657220616374697665205B735D0046690B
:100880006C616D656E74207072696E746564205B56
:100890006D5D0042617564726174650041646469F4
:1008A0006E672066696C616D656E743A0050726F98
:1008B000746F636F6C2076657273696F6E20636806
:1008C000616E6765642C20757067726164696E671C
:1008D000004550523A3020004550523A31200045F0
:1008E00050523A3220004550523A33200045787435
:1008F000722E000401025072696E74657220736575
:100900007420696E746F206472792072756E206D28
:100910006F646520756E74696C20726573746172A2
:100920007421003A20776F726B696E67003A207409
:10093000656D702073656E736F72206465666563A4
:1009400074006578747275646572200068656174FE
:10095000656420626564002000200020004D54453D
:100960004D503A00504944204175746F74756E655E
:100970002066696E6973686564202120506C61632C
:100980006520746865204B702C204B6920616E6473
:10099000204B6420636F6E7374616E747320696E94
:1009A0002074686520636F6E66696775726174692B
:1009B0006F6E2E6800504944204175746F74756ED7
:1009C00065206661696C6564212074696D656F7569
:1009D0007400504944204175746F74756E652066CB
:1009E00061696C6564212054656D70657261747510
:1009F000726520746F206869676800204B643A2034
:100A000000204B693A2000204B703A200020436CB4
:100A1000617373696320504944002054753A200083
:100A2000204B753A2000206D61783A2000206D69D6
:100A30006E3A200020643A200020626961733A20F7
:100A400000504944204175746F74756E652073744D
:100A5000617274001C151C141E141422420BB20B7C
:100A6000060C760CC60C3E0D8E0DDE0D54617267C1
:100A700065744265643A00496620796F75206E6539
:100A800065642061206869676865722074656D70AF
:100A9000657261747572652C20796F75276C6C2096
:100AA0006861766520746F206368616E6765207980
:100AB0006F7572206669726D7761726520636F6E03
:100AC00066696775726174696F6E2E005461726732
:100AD00065742074656D70657261747572652065EA
:100AE000786365656473204845415445445F4245D9
:100AF000445F4D41585F54454D503D003A005461AC
:100B00007267657445787472004D31323020533508
:100B10002050350A4D31313720457874727564653F
:100B200072203100004D31323020533520503135A4
:100B30000A4D313137204578747275646572203200
:100B400000000000A00F5C00600969001009790036
:100B5000C0088C007008A2002008BD00D007DE008D
:100B60008007050130073401E0066D019006B201EF
:100B700040060702F0056D02A005E80250057B0360
:100B800000052B04B004F8046004EB06C00335092B
:100B900020037F0B8002650DE001B00E40011D0FA8
:100BA000F000480FC8006C0FA000ED0F60FFFE0FB3
:100BB00048FE0400801AD8009808AC012007800283
:100BC00050065403C80528045805FC040005D00548
:100BD000B004A4066804780728044C08E803200938
:100BE000B003F4097003C80A38039C0BF802700CB8
:100BF000B002440D6802180E0802EC0E8801C00F06
:100C00008800F00F00000400001B5400600964001D
:100C100010097400C008840070089C002008B80007
:100C2000D007D8008007000130072C01E0066801DA
:100C30009006AC0140060002F0056802A005E00243
:100C40005005740300052404B004F0046004DC05BE
:100C50001004E406C0030408700330092003780B75
:100C60008002600DE001A80E4001680FA000C00FD7
:100C70000000E80F60FF0400700DD8004804AC01CC
:100C800058038002D8025403800228043802FC046E
:100C90000002D005C801A4069801780770014C082D
:100CA000480120091801F409F000C80AC8009C0B8B
:100CB000A000700C7000440D3800180E0000EC0EFF
:100CC000A8FFC00FE8FE040056199000F0071C01B1
:100CD000A006A801F80534028005C00228054C03CF
:100CE000D804D803980464045804F00420047C0554
:100CF00002040806D4039406A80320077E03AC0769
:100D0000560338082E03C40808035009E202DC0920
:100D1000BE02680A9802F40A7002800B4A020C0CA8
:100D20002002980CF401240DC401B00D8E013C0E7C
:100D30004E01C80E0001540F9000E00F00000400A7
:100D4000AE16D8007807AC0128068002720554035D
:100D5000F20428049004FC043E04D005F603A40623
:100D6000B60378077A034C08420320090A03F40902
:100D7000D402C80A9C029C0B6202700C2402440D2F
:100D8000DE01180E8801EC0E1401C00F2000B80619
:100D90001C00E00670000807C8003007240158074F
:100DA00084018007E601A8074E02D007B802F807C1
:100DB000280320089E03480818047008980498081F
:100DC0001E05C008AA05E8083E061009DA0638091B
:100DD0007C07600928088809DE08B0099E09000020
:100DE000401F450060094F0010095C00C0086B00FF
:100DF00070087D0020089200D007AC008007CC006E
:100E00003007DE00E006230190065E014006A601E1
:100E1000F005FF01A0056D025005F30200059603E1
:100E2000B0045A046004400510044806C0036E076D
:100E30007003A8082003EB09D002230B8002410CA9
:100E40003002390DE001040E9001A20E4001170F8F
:100E5000F000690FA000A20F5000C60F0000DD0FC8
:100E6000B0FFEB0F60FF205200204A002049002015
:100E70005000205300204600204500205A002059F1
:100E8000002058004572726F723A2057726F6E6779
:100E900020636865636B73756D20004572726F72B5
:100EA0003A42696E61727920636D642077726F6E69
:100EB0006720636865636B73756D2E00446F6E65A4
:100EC000207072696E74696E672066696C65005384
:100ED000442072656164206572726F7200456368B8
:100EE0006F3A006F6B006F6B00736B6970200020AE
:100EF000676F7420004572726F723A206578706572
:100F000063746564206C696E6520006F6B006F6BA5
:100F100000526573656E643A006572726F723A00D2
:100F2000494E46004E414E00424C4B2000CEE6E872
:100F3000E4E0EDE8E520E7E0E4E0EDE8FF00CEE600
:100F4000E8E4E0EDE8E520E7E0E4E0EDE8FF0000BC
:100F5000006889B4C4CD2D5A6248E8E696C55C2D78
:100F600031440F24F4F2DD73CBCCBB62AEC2A29647
:100F7000989C8FA2877E80127A4174F96E256AB997
:100F800065A861E65D6C5A31572F546151C14E4BD3
:100F90004CFB49CE47C145D143FB413F40993E09F7
:100FA0003D8B3B203AC6387C3740361235F133DC76
:100FB00032D331D430DE2FF32E102E362D632C9801
:100FC0002BD42A172A6129B02805286027C0262596
:100FD000268F25FD247024E7236123E0226222E886
:100FE000217121FD208D201F20B41F4C1FE71E847E
:100FF0001E241EC51D6A1D101DB81C631C0F1CBEBF
:101000001B6E1B201BD41A891A401AF819B2196ECC
:10101000192B19E918A9186A182C18EF17B31779A2
:101020001740170817D1169B1665163116FE15CCFA
:10103000159A156A153A150B15DD14B01484145859
:10104000142D140214D913B013881360133913121A
:1010500013EC12C712A2127E125B1238121512F391
:1010600011D211B01190117011501131111211F4EF
:1010700010D610B8109B107E10621046102B100F67
:1010800010F40FDA0FC00FA60F8C0F730F5A0F4218
:101090000F290F120FFA0EE20ECB0EB50E9E0E8820
:1010A0000E720E5C0E460E310E1C0E070EF30DDF97
:1010B0000DCB0DB70DA30D900D7D0D6A0D570D4491
:1010C0000D320D200D0E0DFC0CEA0CD90CC80CB71E
:1010D0000CA60C950C850C740C640C540C440C354B
:1010E0000C250C160C060CF70BE80BD90BCB0BBC24
:1010F0000BAE0BA00B920B840B760B680B5A0B4DAF
:101100000B400B320B250B180B0C0BFF0AF20AE6F7
:101110000AD90ACD0AC10AB50AA90A9D0A910A8507
:101120000A7A0A6E0A630A580A4D0A420A370A2CDA
:101130000A210A160A0C0A010AF709EC09E209D881
:1011400009CE09C409BA09B009A6099C09920989FE
:10115000090000121389095B06C404D0032D03B9EA
:101160000262021E02E801BB01960177015C0145A3
:1011700001310154300A4739322045300A4D3130AF
:10118000342054302053300A4D3130342054312033
:1011900053300A47312058302059313930204631F8
:1011A000303030302E300A4739310A4731205A3535
:1011B0003020463430300A47393000446F6E6520A5
:1011C0007072696E74696E672066696C650045634C
:1011D000686F3A00CEE6E8E4E0EDE8E520E7E0E419
:1011E000E0EDE8FF002ACDE520EEF2EAEB2E5553C4
:1011F000422DEAE0E1E5EBFC2A00C8E4E5F220EF4D
:10120000E5F7E0F2FC00536F667477617265205277
:1012100065736574005761746368646F6720526515
:101220007365740042726F776E206F75742052651B
:101230007365740045787465726E616C20526573D5
:10124000657400506F7765725570007374617274C5
:1012500000446F6E6520736176696E672066696C05
:10126000652E0057726974696E6720746F20666915
:101270006C653A200055706C6F6164696E672E2E44
:101280002E006F70656E206661696C65642C204667
:10129000696C653A20004E6F742053442070726967
:1012A0006E74696E67002F005344207072696E740B
:1012B000696E672062797465200046696C652073E9
:1012C000656C6563746564002053697A653A00460D
:1012D000696C65206F70656E65643A0066696C655F
:1012E0002E6F70656E206661696C656400456E6482
:1012F0002066696C65206C69737400426567696E6D
:101300002066696C65206C697374006572726F7217
:101310002077726974696E6720746F2066696C65E6
:10132000006572726F72206D6F756E74696E6720E2
:101330005344436172640031240000000000000047
:10134000000100000000FF0000416374696F6E3A05
:10135000256C6100031027020036240310270200C9
:101360003A240100000100371303102702003E2435
:101370000200000500422403ED0304004C2403EEA8
:10138000030400542403EF0304005C2403FA030461
:1013900000642403FB0304006C2403FC03040074B6
:1013A000240200000A007C240200000C0090245259
:1013B00065717565737450617573653A0046616E49
:1013C00073706565643A0046616E73706565643A72
:1013D0000046616E73706565643A3235350046616A
:1013E0006E73706565643A3139320046616E7370B0
:1013F0006565643A3132380046616E7370656564C4
:101400003A36340046616E73706565643A3000CDDB
:10141000E5F22053442DEAE0F0F2FB00CDE5F220A6
:1014200053442DEAE0F0F2FB0047312058302059B8
:10143000313930204636303030004739322045309F
:101440000A473120453135204634303000473238A4
:10145000205A0A54310A4739300A4732310A473193
:10146000205A31353020463430300A473120583147
:10147000303020593020463630303000EDE0E6EC98
:10148000E8F2E520EDE020EAEDEEEFEAF3202D3E74
:1014900000CFEEF1EBE520F1E5F0E2E8F1E020F13C
:1014A000EEEFEBE000473120583020593139302041
:1014B0004636303030004739322045300A47312037
:1014C000453135204634303000473238205A0A54EE
:1014D000300A4739300A4732310A4731205A31350C
:1014E0003020463430300A473120583130302059CE
:1014F0003020463630303000EDE0E6ECE8F2E52012
:10150000EDE020EAEDEEEFEAF3202D3E00CFEEF124
:10151000EBE520F1E5F0E2E8F1E020F1EEEFEBE0C1
:10152000004731205830205931393020463630308C
:1015300030004739322045300A47312045313520C7
:101540004634303000543100EDE0E6ECE8F2E520BE
:10155000EDE020EAEDEEEFEAF3202D3E00CFEEF1D4
:10156000EBE520F1E5F0E2E8F1E020F1EEEFEBE071
:10157000004739322045300A473120453135204671
:1015800034303000473238205A0A54300A47393054
:101590000A4732310A4731205A313530204634303B
:1015A000300A47312058313030205930204636300B
:1015B000303000EDE0E6ECE8F2E520EDE020EAED89
:1015C000EEEFEAF3202D3E00CFEEF1EBE520F1E562
:1015D000F0E2E8F1E020F1EEEFEBE0004731205AD5
:1015E000353020463430300A4731205830205931C8
:1015F000393020463630303000473120452D3120FB
:10160000463430300A4739322045300054310A4DD3
:1016100031303420533133300A4739322045300AD3
:10162000473120452D323020463230300A4D32319C
:1016300034205831205935205A310A473932204553
:101640003000EDE0E6ECE8F2E520EDE020EAEDEE3A
:10165000EFEAF3202D3E002020CFEEF1EBE520E86D
:10166000E7E2EBE5F7E5EDE8FF00473120452D31F6
:1016700020463430300A473932204530004732386E
:10168000205A0A54300A4739300A4732310A47395A
:10169000322045300A4731205A333020463430302A
:1016A0000A4731205831303020593020463630300A
:1016B000300A4D31303420533133300A473932202B
:1016C00045300A473120452D323020463230300A2D
:1016D0004D323134205831205935205A310A47399A
:1016E0003220453000EDE0E6ECE8F2E520EDE020C8
:1016F000EAEDEEEFEAF3202D3E002020CFEEF1EBF5
:10170000E520E8E7E2EBE5F7E5EDE8FF004731200B
:101710005A353020463430300A473120583020596D
:1017200031393020463630303000473120452D31B8
:1017300020463430300A47393220453000473238AD
:10174000205A0A54310A4739300A4732310A473998
:10175000322045300A4731205A3330204634303069
:101760000A47312058313030205930204636303049
:10177000300A4D31303420533133300A473932206A
:1017800045300A473120452D323020463230300A6C
:101790004D323134205831205935205A310A4739D9
:1017A0003220453000EDE0E6ECE8F2E520EDE02007
:1017B000EAEDEEEFEAF3202D3E002020CFEEF1EB34
:1017C000E520E8E7E2EBE5F7E5EDE8FF004731204B
:1017D0005A353020463430300A47312058302059AD
:1017E00031393020463630303000473120452D31F8
:1017F00020463430300A47393220453000473238ED
:10180000205A0A54300A4739300A4732310A4739D8
:10181000322045300A4731205A33302046343030A8
:101820000A47312058313030205930204636303088
:10183000300A4D31303420533133300A47393220A9
:1018400045300A473120452D323020463230300AAB
:101850004D323134205831205935205A310A473918
:101860003220453000EDE0E6ECE8F2E520EDE02046
:10187000EAEDEEEFEAF3202D3E002020CFEEF1EB73
:10188000E520E8E7E2EBE5F7E5EDE8FF00EDE0E66F
:10189000ECE8F2E520EDE020EAEDEEEFEAF3202DB2
:1018A0003E00CFEEF1EBE520F1EDFFF2E8FF20E4A2
:1018B000E5F2E0EBE800EDE0E6ECE8F2E520EDE053
:1018C00020EAEDEEEFEAF3202D3E00CFEEF1EBE55E
:1018D00020F1EDFFF2E8FF20E4E5F2E0EBE800475D
:1018E00031205A353020463430300A4731205830C4
:1018F00020593139302046363030300047312045CC
:101900003120463132300A473932204530004739DC
:101910003220453000EDE0E6ECE8F2E520EDE02095
:10192000EAEDEEEFEAF3202D3E00202020CFEEF18D
:10193000EBE520E7E0EFF0E0E2EAE80047312045A0
:101940002D3120463430300A47393220453000549A
:10195000310A4D31303420533133300A4739322087
:1019600045300A473120452D323020463230300A8A
:101970004D323134205831205935205A310A4739F7
:10198000322045300020E820F1ECE5EDE8F2E520DA
:10199000EFEBE0F1F2E8EA00EDE0E6ECE8F2E5205A
:1019A000EDE020EAEDEEEFEAF3202D3E002020CF1F
:1019B000EEF1EBE520E8E7E2EBE5F7E5EDE8FF0027
:1019C000473120453120463132300A4739322045EF
:1019D000300047393220453000EDE0E6ECE8F2E532
:1019E00020EDE020EAEDEEEFEAF3202D3E0020208E
:1019F00020CFEEF1EBE520E7E0EFF0E0E2EAE800EF
:101A0000473120452D3120463430300A47393220C5
:101A1000453000473238205A0A54300A4739300AD4
:101A20004732310A4739322045300A4731205A338C
:101A30003020463430300A47312058313030205978
:101A4000302046363030300A4D3130342053313377
:101A5000300A4739322045300A473120452D32308F
:101A600020463230300A4D32313420583120593539
:101A7000205A310A4739322045300020E820F1EC65
:101A8000E5EDE8F2E520EFEBE0F1F2E8EA00EDE069
:101A9000E6ECE8F2E520EDE020EAEDEEEFEAF320F7
:101AA0002D3E002020CFEEF1EBE520E8E7E2EBE56C
:101AB000F7E5EDE8FF004731205A35302046343055
:101AC000300A4731205830205931393020463630DD
:101AD000303000473120453120463132300A473915
:101AE000322045300047393220453000EDE0E6EC49
:101AF000E8F2E520EDE020EAEDEEEFEAF3202D3EFE
:101B000000202020CFEEF1EBE520E7E0EFF0E0E26F
:101B1000EAE800473120452D3120463430300A476D
:101B2000393220453000473238205A0A54310A47AA
:101B300039300A4732310A4739322045300A4731B5
:101B4000205A333020463430300A47312058313063
:101B5000302059302046363030300A4D3130342074
:101B6000533133300A4739322045300A4731204556
:101B70002D323020463230300A4D32313420583147
:101B8000205935205A310A4739322045300020E8A3
:101B900020F1ECE5EDE8F2E520EFEBE0F1F2E8EA28
:101BA00000EDE0E6ECE8F2E520EDE020EAEDEEEF16
:101BB000EAF3202D3E002020CFEEF1EBE520E8E710
:101BC000E2EBE5F7E5EDE8FF004731205A3530203C
:101BD000463430300A4731205830205931393020CE
:101BE00046363030300047312045312046313230E2
:101BF0000A4739322045300047393220453000ED60
:101C0000E0E6ECE8F2E520EDE020EAEDEEEFEAF3C5
:101C1000202D3E00202020CFEEF1EBE520E7E0EF85
:101C2000F0E0E2EAE800473120452D31204634302B
:101C3000300A47393220453000473238205A0A549A
:101C4000300A4739300A4732310A473932204530A5
:101C50000A4731205A333020463430300A47312089
:101C6000583130302059302046363030300A4D312E
:101C7000303420533133300A4739322045300A4757
:101C80003120452D323020463230300A4D32313449
:101C9000205831205935205A310A473932204530F1
:101CA0000020E820F1ECE5EDE8F2E520EFEBE0F1D3
:101CB000F2E8EA00EDE0E6ECE8F2E520EDE020EA0B
:101CC000EDEEEFEAF3202D3E002020CFEEF1EBE524
:101CD00020E8E7E2EBE5F7E5EDE8FF004731205AC1
:101CE000353020463430300A4731205830205931C1
:101CF00039302046363030300047312045312046DB
:101D00003132300A4739322045300054310A4739E0
:101D10003220453000EDE0E6ECE8F2E520EDE02091
:101D2000EAEDEEEFEAF3202D3E00202020CFEEF189
:101D3000EBE520E7E0EFF0E0E2EAE800473120459C
:101D40003120463132300A4739322045300047329F
:101D500038205A0A54300A4739300A4732310A4784
:101D600039322045300A4731205A3330204634304A
:101D7000300A473120583130302059302046363033
:101D800030300A47393220453000EDE0E6ECE8F229
:101D9000E520EDE020EAEDEEEFEAF3202D3E002015
:101DA0002020CFEEF1EBE520E7E0EFF0E0E2EAE81B
:101DB000004731205A353020463430300A47312030
:101DC00058302059313930204636303030004731D4
:101DD00020453120463132300A4739322045300023
:101DE000473238205A0A54310A4739300A473231CB
:101DF0000A4739322045300A4731205A33302046CD
:101E00003430300A473120583130302059302046A4
:101E1000363030300A47393220453000EDE0E6EC0C
:101E2000E8F2E520EDE020EAEDEEEFEAF3202D3ECA
:101E300000202020CFEEF1EBE520E7E0EFF0E0E23C
:101E4000EAE8004731205A353020463430300A471E
:101E5000312058302059313930204636303030006A
:101E6000473120453120463132300A47393220454A
:101E70003000473238205A0A54300A4739300A476E
:101E800032310A4739322045300A4731205A33303F
:101E900020463430300A4731205831303020593014
:101EA0002046363030300A47393220453000EDE0E8
:101EB000E6ECE8F2E520EDE020EAEDEEEFEAF320D3
:101EC0002D3E00202020CFEEF1EBE520E7E0EFF003
:101ED000E0E2EAE800436F6F6C646F776E004731B1
:101EE000205A353020463430300A473120583020CF
:101EF00059313930204636303030004731204531B5
:101F000020463132300A4739322045300000EDE0BA
:101F1000E6ECE8F2E520EDE020EAEDEEEFEAF32072
:101F20002D3E00C4EBFF20E7E0E2E5F0F8E5EDE848
:101F3000FF20F2E5F1F2E000004731205A35302071
:101F4000463430300A47312058302059313930205A
:101F5000463630303000473120453120463132306E
:101F60000A4739322045300000EDE0E6ECE8F2E5C2
:101F700020EDE020EAEDEEEFEAF3202D3E00C4EB89
:101F8000FF20E7E0E2E5F0F8E5EDE8FF20F2E5F11B
:101F9000F2E000004731205A353020463430300A14
:101FA00047312058302059313930204636303030D2
:101FB0000000E8E7EEEBFFF2EEF0EEE220E220EDCB
:101FC000EEF0ECE52E0020CAE0EBE8E1F0EEE2EA0C
:101FD000E020F2E5F0ECEE2D000020202020F2E5DC
:101FE000F5EFEEE4E4E5F0E6EAE82E00CEE1F0E01D
:101FF000F2E8F2E5F1FC20E220F1EBF3E6E1F30098
:102000002020F2E5F0ECEEE8E7EEEBFFF2EEF0EE8A
:10201000E22100CDE0F0F3F8E5EDE020EAE0EBE8C6
:10202000E1F0EEE2EAE000202020202020256531CA
:10203000022F254531020020202020202025653058
:10204000022F254530020020202020202025653148
:10205000022F254531020020202020202025653038
:10206000022F2545300200202020CFF0EEE3F0E5DE
:10207000E220F1EEEFEBE0203200202020CFF0EE66
:10208000E3F0E5E220F1EEEFEBE0203100000000AC
:1020900000202020202020256562022F2545620295
:1020A00000202020202020256562022F2545620285
:1020B00000202020CFF0EEE3F0E5E220F1F2EEEB9D
:1020C000E000000000004731205A3530204634300F
:1020D000300A4731205830205931393020463630C7
:1020E00030300000EDE0E6ECE8F2E520EDE020EA3B
:1020F000EDEEEFEAF3202D3E00F4E8EAF1E0F2EE37
:10210000F020E800C7E0F2FFEDE8F2E520EFF0E0B4
:10211000E2FBE9004731205A3520463430300A4787
:102120003120583136302E35205933202020463684
:1021300030303000EDE0E6ECE8F2E520EDE020EABA
:10214000EDEEEFEAF3202D3E00EFF0E0E2FBE920B8
:10215000F4E8EAF1E0F2EEF020E800F4E8EAF1E079
:10216000F2EEF02C20EEF1EBE0E1FCF2E500C7E04E
:10217000F2FFEDE8F2E520EBE5E2FBE90047312074
:102180005A3520463430300A4731205833382E35FE
:1021900020205933202020463630303000EDE0E654
:1021A000ECE8F2E520EDE020EAEDEEEFEAF3202D99
:1021B0003E00EBE5E2FBE920F4E8EAF1E0F2EEF0C4
:1021C00020E800F4E8EAF1E0F2EEF02C20EEF1EB8A
:1021D000E0E1FCF2E500C7E0F2FFEDE8F2E520F116
:1021E000F0E5E4EDE8E9004731205A353020463487
:1021F00030300A47312058302059313930204636A6
:10220000303030004731205A353020463430300AE3
:10221000473120583020593139302046363030305F
:102220000000EDE0E6ECE8F2E520EDE020EAEDEE7E
:10223000EFEAF3202D3E00EFF0E0E2FBE920EEF7BD
:10224000E8F1F2E8F2E5EBFC20E800CFE5F0E5F19B
:10225000F2E0E2FCF2E520ECE5F2EAF320E20047EE
:1022600031205A353020463430300A47312058303A
:1022700020593139302046363030300000EDE0E66C
:10228000ECE8F2E520EDE020EAEDEEEFEAF3202DB8
:102290003E00EFF0E0E2FBE920EEF7E8F1F2E8F2D1
:1022A000E5EBFC20E800CFE5F0E5F1F2E0E2FCF23E
:1022B000E520ECE5F2EAF320E2008025000040385A
:1022C0000000004B00008070000000960000C0DAA3
:1022D000000000E10000002C010008B2010000C273
:1022E000010000F401000084030090D0030000E826
:1022F000030000000000466C6F77726174654D75D5
:102300006C7469706C793A000200000300A82447DD
:1023100032380A4739300A47323100473238205ABA
:102320000A4739300A4732310A47312058313030B4
:1023300020593139372046363030300A4731205A5B
:10234000302E352046343030004732380A47393095
:102350000A47323100AE24B524C2EAEB00C2FBEAE0
:10236000EB00C4E000CDE5F20010101010101010CA
:102370000014141414141414001018141214181047
:1023800000030004004E2F41005049440042616E9A
:102390006742616E6700D1EEEFEBEE203200D1EEC6
:1023A000EFEBEE203100C8E4E5F220EFE5F7E0F2D4
:1023B000FC2E2E2E00C2FBEAEB00646566000000D6
:1023C000003FCDCC4C3D0AD7A33B6F12033A0040EF
:1023D00014542050494341534F2033442044455323
:1023E00049474E455200202020C2E5F0F1E8FF2089
:1023F000CFCE20312E303600CEE6E8E4E0EDE8E541
:1024000020E7E0E4E0EDE8FF00040E15041C000006
:1024100000040A0400000000000000001F0A000081
:1024200000001C1F11111F0000151515151515159D
:1024300000BC2403E803C424C924CE24D324D82414
:10244000DD243124E224E724EC24F124F624FB24C7
:10245000002505250A250F25142519251E252325C8
:1024600028252D25322537253C25412546254B2578
:10247000502555255A255F256425692531246E256B
:10248000732578257D25822587258C259125962500
:1024900031249B25A025A525AA25AF25B425B9253E
:1024A000BE25C325C82591253124CD25D225000080
:1024B000000400D7250000000400DF25CDE0E7E0A0
:1024C000E4200100E725000000F5250000000626B5
:1024D000000000142600000025260000003526001C
:1024E0000000392603F503452603F3034A2603F6C5
:1024F00003502603F7035B2600000064260000005B
:102500007426000000842600000085260000008E4E
:10251000260000009E26000000AE26000000AF2628
:10252000000000B826000000C826000000D82600E1
:102530000000D926000000E226000000F22600007C
:1025400000022700000003270000000C2700000005
:102550001C270000002C270000002D27000000365B
:1025600027000000462700000056270000005727DC
:10257000043C046727043D047727043E04872703AF
:102580003A049627033B04A527034504B727030114
:1025900004C92702D827DF27034304EA2703FD03E2
:1025A000F32703FE03FA2703FF03012803000408AF
:1025B00028028C1314280277131F280293132B2848
:1025C000027E133628029A1342280285134D2802F0
:1025D00070135628025D28642869286E28732878AD
:1025E000287D2882288728436F6E66696775726127
:1025F00074696F6E0073746F72656420696E204534
:102600004550524F4D00436F6E6669677572617435
:10261000696F6E006C6F6164656420662E204545AD
:1026200050524F4D002A2A2A2A204552524F5220FA
:102630002A2A2A2A00256F6500C2FBE1EEF020F469
:10264000E0E9EBE000D1F2EEEF00CFE0F3E7E000ED
:10265000CFF0EEE4EEEBE6E8F2FC00583A257830F5
:10266000206D6D004D696E20656E6473746F703AF5
:10267000257378004D617820656E6473746F703ACD
:102680002573580000593A257831206D6D004D6949
:102690006E20656E6473746F703A257379004D61B6
:1026A0007820656E6473746F703A25735900005A10
:1026B0003A257832206D6D004D696E20656E647329
:1026C000746F703A25737A004D617820656E64737B
:1026D000746F703A25735A0000583A257830206D8F
:1026E0006D004D696E20656E6473746F703A25736A
:1026F00078004D617820656E6473746F703A25734D
:10270000580000593A257831206D6D004D696E20D2
:10271000656E6473746F703A257379004D6178202B
:10272000656E6473746F703A25735900005A3A25C8
:102730007832206D6D004D696E20656E6473746F24
:10274000703A25737A004D617820656E6473746FFA
:10275000703A25735A00004265642054656D702EEE
:102760003A25456202430054656D702E20302020CA
:102770003A25453002430054656D702E20312020EB
:102780003A254531024300457874727564657220BC
:1027900030204F666600457874727564657220312A
:1027A000204F6666002558302053656C65637420A1
:1027B000457874722E30002558312053656C65635E
:1027C0007420457874722E3100457874722E207012
:1027D0006F736974696F6E0003F00302008C2853F5
:1027E0006574204F726967696E00486F6D6520419E
:1027F0006C6C00486F6D65205800486F6D652059FE
:1028000000486F6D65205A005820506F732E204687
:10281000617374005820506F736974696F6E00594A
:1028200020506F732E2046617374005920506F73CF
:102830006974696F6E005A20506F732E2046617361
:1028400074005A20506F736974696F6E0053442D81
:10285000EAE0F0F2E000D1E5F0E2E8F10002000089
:102860000D009028AA28000000BC28000000CC28F9
:10287000000000D028000000D428000000E4280058
:102880000000F42800000004290000001029152988
:1028900031241A291F29242929292E2933293829A5
:1028A0003D29422947294C2951292565691A256561
:1028B00063021B2565741C2545630200041A256507
:1028C00042021B2565381C254562020025666E0004
:1028D000256F7300311A256530021B2565391C25CB
:1028E00045300200321A256531021B2565611C2521
:1028F00045310200041A256542021B2565381C2556
:102900004562020046616E3A202566732525250042
:1029100056290000005F290000006E29027E2985EB
:10292000290295299C2902AE29B52902C529CC295D
:1029300002D929E02902EB29F22902012A082A02F8
:102940001B2A222A022E2A352A02482A4F2A03CA83
:1029500004622A026D2A453A257833206D6D0031D4
:1029600020636C69636B203D2031206D6D00D1ECDC
:10297000E5EDE8F2FC20EFEBE0F1F2E8EA0002001E
:10298000000400742AC8E7E2EBE5F7FC20EFEBE077
:10299000F1F2E8EA0002000004007C2AC7E0EFF050
:1029A000E0E2E8F2FC20EFEBE0F1F2E8EA000200FE
:1029B000000400842ACDE0F1F2F0EEE9EAE020F133
:1029C000F2EEEBE00003B40404008C2AD1E5F0E25F
:1029D000E8F120F1EEEFEBE0000200000400942AA1
:1029E000CFF0E5E4EDE0E3F0E5E2000200000300F3
:1029F0009C2AD1ECE5F9E5EDE8E520F1EEEFEBE01E
:102A0000000200000300A22ACAE0EBE8E1F0EEE2D7
:102A1000EAE0203020582C592C5A00020000040013
:102A2000A82AC2FBE1EEF020F1EEEFEBE00003C7D5
:102A3000040400B02AD2E5F1F220EEF7E8F1F2EA60
:102A4000E820F1EEEFE5EB000200000300B82AD227
:102A5000E5F1F220F2E5F0ECEEE8E7EEEB2DF0EE3A
:102A6000E200CE20EFF0E8EDF2E5F0E50003B90476
:102A70000400BE2A3124C62ACB2AD02A3124D52AE2
:102A8000DA2ADF2A3124E42AE92AEE2AF32AF82A6C
:102A9000FD2A022B3124072B0C2B112B3124162B52
:102AA0001B2B3124202B252B31242A2B2F2B342B8D
:102AB000392B3E2B432B482B31244D2B522B572B9C
:102AC0005C2B612B662B6B2B03C204732B03C3049B
:102AD0007B2B03C404852B03BC048D2B03BD049501
:102AE0002B03BE049F2B03BF04A72B03C004AF2BF3
:102AF00003C104B92B000000CA2B000000D52B0035
:102B00000000EA2B000000EB2B03C504F32B03C6E7
:102B100004FB2B03CB04052C033704142C034704BC
:102B2000232C02312C382C02462C4D2C025C2C63B9
:102B30002C02722C792C02882C8F2C000000902CF7
:102B4000000000A32C000000AE2C000000AF2C03FE
:102B5000C804B72C03C904BF2C000000D42C00000B
:102B600000E92C000000F62C000000D1EEEFEBEEA7
:102B7000203100D1EEEFEBEE203200D1EEEFEBEEA4
:102B800020312B3200D1EEEFEBEE203100D1EEEF11
:102B9000EBEE203200D1EEEFEBEE20312B3200D104
:102BA000EEEFEBEE203100D1EEEFEBEE203200D174
:102BB000EEEFEBEE20312B3200CEF1EBE0E1FCF258
:102BC000E520F1F0E5E4EDE8E900F4E8EAF1E0F20F
:102BD000EEF020E800EDE0E6ECE8F2E520EDE020A4
:102BE000EAEDEEEFEAF3202D3E0000D1EEEFEBEE42
:102BF000203100D1EEEFEBEE203200D1EEEFEBEE24
:102C000020312B3200CFF0E5E4EDE0E3F0E5E22007
:102C1000504C4100CFF0E5E4EDE0E3F0E5E2204187
:102C2000425300D1ECE5F9E5EDE8E520EFEE205860
:102C300000034E040400082DD1ECE5F9E5EDE8E5CC
:102C400020EFEE205900034F040400102DCAE0EBE2
:102C5000E8E1F0EEE2EAE0203020580003500404FE
:102C600000182DCAE0EBE8E1F0EEE2EAE0203020C7
:102C700059000351040400202DCAE0EBE8E1F0EE16
:102C8000E2EAE02030205A000352040400282D001C
:102C9000202020C0EAF2E8E2EDEEE520F1EEEFEBD5
:102CA000EE3A00202020202020202578390000D175
:102CB000EEEFEBEE203100D1EEEFEBEE203200CD67
:102CC000EEECE5F020E2E5F0F1E8E82048573A3391
:102CD0002E303200CDEEECE5F020E2E5F0F1E8E850
:102CE0002053573A312E303600CFEBE0F1F2E8EACC
:102CF0003A256650EC00C2F0E5ECFF20F0E0E1EE92
:102D0000F2FB3A257054F700302D352D3A2D3F2D2A
:102D1000442D492D4E2D532D582D5D2D622D672D9F
:102D20006C2D712D762D7B2D802D852D8A2D8F2D4F
:102D3000942D000000A82D000000BA2D000000CF47
:102D40002D000000DB2D000000EF2D000000012E03
:102D5000000000162E000000222E000000352E007C
:102D60000000472E0000005C2E0000006A2E0000CC
:102D7000007D2E0000008F2E000000A42E00000019
:102D8000B22E000000C62E000000D32E000000E886
:102D90002E0000002020C8F1EFEEEBFCE7F3FF204F
:102DA000F8E0E1EBEEED2C00202020F1EAEEF0F06F
:102DB000E5EAF2E8F0F3E9F2E500F1ECE5F9E5ED3A
:102DC000E8E520F1EEEFEBE020EFEE20583A0020AE
:102DD00020202020202020257835002020C8F1EF59
:102DE000EEEBFCE7F3FF20F8E0E1EBEEED2C00204A
:102DF0002020F1EAEEF0F0E5EAF2E8F0F3E9F2E59E
:102E000000F1ECE5F9E5EDE8E520F1EEEFEBE0208F
:102E1000EFEE20593A002020202020202020257885
:102E200035002020C8F1EFEEEBFCE7F3FF20ECE5E6
:102E3000F2EAF32C00202020F1EAEEF0F0E5EAF2CD
:102E4000E8F0F3E9F2E500F1ECE5F9E5EDE8E5207D
:102E5000F1EEEFEBE020EFEE20583A0020202020AA
:102E600020202025783620ECEC002020C8F1EFEE61
:102E7000EBFCE7F3FF20ECE5F2EAF32C0020202046
:102E8000F1EAEEF0F0E5EAF2E8F0F3E9F2E500F15C
:102E9000ECE5F9E5EDE8E520F1EEEFEBE020EFEE13
:102EA00020593A002020202020202025783720ECAF
:102EB000EC002020C2E5EBE8F7E8EDE020EFF0E8D9
:102EC000E6E8ECE03A002020202020202578382079
:102ED000ECEC003C2D2D2D2D2DF1E8EBFCEDE5E586
:102EE00020EFF0E8E6E8EC00F1EBE0E1E5E520EFCB
:102EF000F0E8E6E8EC2D2D2D2D2D2D3E00000021D3
:102F000000240027002A0000002200250028002BB2
:102F10000000002000230026002900020202020215
:102F2000020202040404040404040403030303036C
:102F30000303030101010101010101010204081061
:102F40002040800102040810204080010204081083
:102F5000204080804020100804020100000001028F
:102F6000000000000000000403070600000000004D
:102F70000000000000000000000000494E46494EDD
:102F80004954594E414ECDCCCC3D0AD7233C17B7BE
:102F9000D13877CC2B329595E6241FB14F0A00002B
:102FA00020410000C84200401C4620BCBE4CCA1B49
:102FB0000E5AAEC59D740F747BA424AD11241FBEA0
:102FC000CFEFD0E4DEBFCDBF1AE0A0E0B1E0E6E194
:102FD000FAEE01E00BBF02C007900D92AC31B107D1
:102FE000D9F71BBE1BE1ACE1BAE001C01D92AE3EB9
:102FF000B107E1F71FE2CCEBDFE204C02297FE014C
:103000000E94C3F4C63BD107C9F70E942FEF0C946E
:1030100009F50C940000A0E0B0E0E1E1F8E10C94C7
:10302000D8F4EC015B016115710519F0FB01918386
:103030008083F9908F2D90E00E94C7F4892BC9F707
:10304000FDE2FF1621F4F990EE24E39405C02BE293
:10305000F21609F4F990EE248E0101501040C801D7
:103060006BE77FE243E050E00E949A1A892B01F55A
:103070008E010E5F1F4FC8016EE77FE245E050E012
:103080000E949A1A892B19F48E01095F1F4FA1140F
:10309000B10419F0F50111830083E0FC04C070E075
:1030A00090E080E814C070E090E080E86FEF08C125
:1030B000C80163E87FE243E050E00E949A1A892B3E
:1030C00069F4A114B10429F470E090E080EC6FE79A
:1030D000F7C02296F501D183C083F6CF88249924C6
:1030E00040E050E060E070E0EF2DE053EA30A0F502
:1030F000F2E0EF2A8E2D90E09C0128703070E2FE05
:1031000006C0232B79F50894811C911C2BC0232B1E
:1031100019F0089481089108DB01CA0112E0880FB8
:10312000991FAA1FBB1F1A95D1F7480F591F6A1F75
:103130007B1F440F551F661F771F4E0F511D611DCA
:10314000711D483929E9520729E9620729E1720707
:1031500048F084E0E82A06C0EE3F31F4E3FC39C0D1
:1031600098E0E92AF990C0CFE53311F0E53189F50F
:1031700029912D3219F4E0E1EE2A05C02B3219F025
:1031800081E090E003C0299182E090E0E22FE053DB
:10319000EA3018F0C81BD90B1CC020E030E0FCE07E
:1031A00020383F075CF4C901880F991F880F991FC9
:1031B000280F391F220F331F2E0F311DE991E053C5
:1031C000EA3068F3E4FE03C0309521953F4F820E4C
:1031D000931ECE2CDD24E1FE07C0A114B10421F022
:1031E0002197F501D183C083CB01BA010E9477F208
:1031F0007B018C01F3E0CF22DD2423E0C216D10451
:1032000021F417FB109517F9109557016801C801B3
:10321000B70120E030E040E050E00E94DAF188237E
:1032200009F44AC097FE0DC02AE9E22E2FE2F22EE1
:103230009094819491089394C0E2D0E000E010E073
:1032400012C092EBE92E9FE2F92EF6CFF7012591FD
:10325000359145915491C601B5010E9482F35B01FD
:103260006C018C1A9D0A8C169D0684F7D595C7951E
:103270000F5F1F4F0630110529F08CEF9FEFE80E0E
:10328000F91EF1CFC501D6017C018D018C2D880F6F
:103290008D2D881F8F3F51F0C601B50120E030E031
:1032A00040E050E00E94DAF1882331F482E290E0BD
:1032B0009093ED1B8093EC1B7E2D9F2D802F612F13
:1032C000272F392F482F562FB901CA01CDB7DEB7A6
:1032D000ECE00C94F4F42F923F925F926F927F9205
:1032E0008F929F92AF92BF92CF92DF92EF92FF9216
:1032F0000F931F93CF93DF938C011B01EA0161159C
:10330000710519F0FB0191838083209749F0CE016C
:103310000297839728F020E030E040E050E0F6C0CC
:10332000F801A1908F018A2D90E00E94C7F4892BAB
:10333000B9F7FDE2AF1631F4F801A1908F015524E1
:10334000539407C0FBE2AF1619F4F801A1908F0166
:103350005524209719F0C031D105C1F4F0E3AF1620
:1033600079F4F8018081883711F0883549F4F80143
:10337000A1800E5F1F4FF2E05F2AC0E1D0E006C0DF
:10338000209721F480E3A816E9F427C0C830D105BE
:1033900031F1C930D10524F4C230D10531F50CC06A
:1033A000CA30D10589F0C031D105F9F4C12CD12C36
:1033B000E12CB8E0FB2E28C0C12CD12CE12CA0E4DC
:1033C000FA2E22C0CAE0D0E0FCECCF2EFCECDF2EBF
:1033D000FCECEF2EFCE0FF2E17C0C8E0D0E0C12CC3
:1033E000D12CE12CE0E1FE2E0FC09E01442737FDD9
:1033F0004095542F60E070E080E090E80E9484F4F3
:10340000C901DA016C017D0120E030E040E050E0CC
:1034100060E03E01882477FC8094982C70EDB72EF4
:10342000BA0CE9E0EB1570F48A2D81548A3118F456
:1034300099ECB92E06C08A2D81568A3150F589EA59
:10344000B82EBA0C8B2D90E08C179D0714F56F3FAA
:10345000E1F0C216D306E406F506B0F0CA01B901E0
:10346000A40193010E943EF49B01AC012B0D311D80
:10347000411D511D2130F0E03F07F0E04F07F0E81B
:103480005F0710F461E001C06FEFF801A1908F01B8
:10349000C5CF2114310481F0662331F00150104072
:1034A000F1011183008308C051FE1AC00250104080
:1034B000F1011183008314C067FF12C050FC05C0E6
:1034C0002FEF3FEF4FEF5FE704C020E030E040E038
:1034D00050E882E290E09093ED1B8093EC1B16C0C5
:1034E00050FE08C050954095309521953F4F4F4F65
:1034F0005F4F0CC057FF0AC082E290E09093ED1B33
:103500008093EC1B2FEF3FEF4FEF5FE7B901CA014C
:10351000DF91CF911F910F91FF90EF90DF90CF90AF
:10352000BF90AF909F908F907F906F905F903F90F3
:103530002F900895FB01DC014150504088F08D919F
:1035400081341CF08B350CF4805E659161341CF085
:103550006B350CF4605E861B611171F3990B089555
:10356000881BFCCFFC018191861721F08823D9F7B5
:10357000992708953197CF010895FC0181E090E0EB
:103580000190061609F4CF010020D1F701970895A4
:10359000FB0151915523A9F0BF01DC014D91451765
:1035A0004111E1F759F4CD010190002049F04D910E
:1035B00040154111C9F3FB014111EFCF81E090E0CB
:1035C00001970895A0E0B0E0E8EEFAE10C94DCF495
:1035D0007C01EB018A01690109C0CE012196F60147
:1035E0000995F70181937F010150104001151105E4
:1035F000A1F7CDB7DEB7E8E00C94F8F4BF92CF9214
:10360000DF92EF92FF920F931F937B018C01FB01DE
:103610000995B82EC8010196F7010995C82EC80171
:103620000296F7010995D82EC8010396F70109956E
:10363000982F6B2D7C2D8D2D1F910F91FF90EF906A
:10364000DF90CF90BF900895DF92EF92FF920F939B
:103650001F937B018C01FB010995D82EC8010196AF
:10366000F7010995982F8D2D1F910F91FF90EF90E5
:10367000DF900895A0E0B0E0E0E4FBE10C94DCF41E
:10368000EC017B018A01690109C0CE012196F70195
:1036900061917F01F6010995015010400115110556
:1036A000A1F7CDB7DEB7E8E00C94F8F4BF92CF9263
:1036B000DF92EF92FF920F931F93D52EC62EB72E57
:1036C00079018C01642FF9010995C80101966D2DCE
:1036D000F7010995C80102966C2DF7010995C801FB
:1036E00003966B2DF70109951F910F91FF90EF90B5
:1036F000DF90CF90BF900895DF92EF92FF920F93EB
:103700001F93D72E7A018C01FA010995C801019601
:103710006D2DF70109951F910F91FF90EF90DF90AC
:103720000895FC018038910510F49C0123C0672B9B
:1037300071F08F3F910521F018F020E030E01AC0C1
:10374000EE0FFF1FE958FA4F2081318113C0A7E720
:10375000B6E020E030E08D919C911197E817F907D1
:1037600031F02F5F3F4F129620383105A1F72058D6
:103770003F4F3070C90108959C01A7E9B4E0E0E033
:10378000F0E001C031968D919C911197009729F03E
:10379000129628173907B1F702C0C9010895EE0F34
:1037A000FF1FE954FD4F20813181F7CFEF92FF9247
:1037B0000F931F93DF93CF93CDB7DEB728970FB644
:1037C000F894DEBF0FBECDBF8C01DA017C014BE067
:1037D00050E006C0FB018191BF01F70181937F0199
:1037E00041505040FFEF4F3F5F07A1F726303105B2
:1037F000C8F0932F979599279795822F8695492FF3
:10380000482B922F979599279795832F8695592F17
:10381000582B2D913D91240F351F8D919C9111971F
:10382000892B39F747E050E0DE011196922F9F7007
:10383000892F805D8A3308F0895FFD01E40FF51F51
:1038400080834150504084E0369527958A95E1F772
:103850002115310559F7A40FB51F8EE78C9320E091
:1038600030E002C02F5F3F4F2417350730F4F801D6
:10387000E20FF31F80818032A9F7D801A20FB31F96
:10388000CE0101964830510510F0E0E206C0FC017F
:10389000E40FF51FE0814F5F5F4FED932F5F3F4FC8
:1038A0002830310578F328960FB6F894DEBF0FBEA6
:1038B000CDBFCF91DF911F910F91FF90EF900895B1
:1038C000DB01882319F02BE030E010C0E0911C0AE6
:1038D000F0911D0A309709F01082109709F01C92A0
:1038E000B0931D0AA0931C0A20E030E0C90108959E
:1038F000FC01009799F08081882381F0868197816F
:103900008617970759F481810E94D77E80FD03C0F6
:1039100020E030E005C023E030E002C029E030E0E4
:10392000C90108950F93CF93DF93EC019A01AB0186
:10393000BC016E5C7F4F898101E00E94DE7E892B95
:1039400011F063E06DC0CF5CDD4F988180E02A917B
:10395000C053D24030E0822B932B85559A4A11F008
:1039600062E05EC0C559DF4F288130E040E050E0A2
:10397000522F4427332722278A9190E0A0E0B0E01D
:10398000DC0199278827282B392B4A2B5B2B229780
:10399000899190E0A0E0B0E0282B392B4A2B5B2BDB
:1039A0009881C956D04080E0A0E0B0E0282B392BA8
:1039B0004A2B5B2B5070265431444445504011F43F
:1039C00060E02EC060E0C957DF4F288130E040E062
:1039D00050E0522F4427332722278A9190E0A0E01D
:1039E000B0E0DC0199278827282B392B4A2B5B2B49
:1039F0002297899190E0A0E0B0E0282B392B4A2B48
:103A00005B2B988180E0A0E0B0E0282B392B4A2B7B
:103A10005B2B5070265431444445504009F061E01E
:103A2000862FDF91CF910F9108952F923F924F9261
:103A30005F926F927F928F929F92AF92BF92CF923E
:103A4000DF92EF92FF920F931F93DF93CF93CDB747
:103A5000DEB72A970FB6F894DEBF0FBECDBFDC01EC
:103A6000142FED91FC91119720813181205330402A
:103A70002A30310540F482819381CA9721F434962B
:103A8000ED93FC9304C08091200A282F30E0232B73
:103A900019F02BE030E0A0C320911C0A30911D0AE0
:103AA0003A872987DB012D933C93232B19F42CE0D3
:103AB00030E092C3E985FA858081882359F08181BD
:103AC0000E94D77E80FD06C0112309F480C382FDC9
:103AD0007BC37DC3A985BA851C9211961C9280E098
:103AE0000E94F27D80FF03C023E030E075C3112304
:103AF00011F082FD69C389859A8540E050E060E05D
:103B000070E00E94921C813021F022243324210194
:103B100031C0E985FA85E051FE4F8481882309F49C
:103B200059C3838590E0A0E0B0E0582E44243324AC
:103B30002224828590E0A0E0B0E0DC01992788276C
:103B4000282A392A4A2A5B2A808590E0A0E0B0E042
:103B5000282A392A4A2A5B2A918580E0A0E0B0E031
:103B6000282A392A4A2A5B2A89859A85B201A10125
:103B70000E94921C833019F421E030E02DC3882389
:103B800009F028C3E985FA8596AD80E025AD30E0DF
:103B9000822B932B8050924009F01CC329853A85D3
:103BA000275B3F4FD9019C9180E02E91A854B040F3
:103BB000BA87A98730E0822B932B4C01AA24BB241F
:103BC00081149104A104B10471F5A75ABF4FBA87BB
:103BD000A9878C9190E0A0E0B0E0B82EAA249924A7
:103BE0008824E985FA85829190E0A0E0B0E0DC01CC
:103BF00099278827882A992AAA2ABB2A329781914D
:103C000090E0A0E0B0E0882A992AAA2ABB2A9081F5
:103C1000E755F040FA87E98780E0A0E0B0E0882A25
:103C2000992AAA2ABB2AA985BA855E968D929D9269
:103C3000AD92BC929197AE5BBF4F4C91A254B040F5
:103C4000BA87A98713964C931397842F815082309B
:103C500008F0C0C2DF962C91DF9712962C93129732
:103C6000222309F4B7C230E0C901019782239323CC
:103C7000892B09F0AFC2AC5BBF4F9C9180E02E91C5
:103C8000A354B040BA87A987622E7724682A792A7C
:103C900019967C926E921897C3018F709070892B41
:103CA00009F098C2AA5BBF4F9C9180E02E91A55469
:103CB000B040BA87A98730E0822B932B7C0100E0CB
:103CC00010E0E114F1040105110571F5AB5ABF4F85
:103CD000BA87A9878C9190E0A0E0B0E0182F002768
:103CE000FF24EE24E985FA85829190E0A0E0B0E01F
:103CF000DC0199278827E82AF92A0A2B1B2B3297FF
:103D0000819190E0A0E0B0E0E82AF92A0A2B1B2B71
:103D10009081E355F040FA87E98780E0A0E0B0E0C9
:103D2000E82AF92A0A2B1B2B29853A852F5B3F4F5E
:103D3000D9019C9180E02E91A054B040BA87A98708
:103D4000C22EDD24C82AD92AC114D10409F442C2E2
:103D5000242F30E040E050E0C501B4010E943EF461
:103D600069837A838B839C83960140E050E02D83A6
:103D70003E834F835887E4E076946794EA95E1F7B1
:103D80005301CC24DD24A20EB31EC41ED51EA60EE4
:103D9000B71EC81ED91EEA14FB040C051D0508F445
:103DA00019C2EA18FB080C091D09A985BA851296E3
:103DB0002C9130E040E050E0C801B7010E9484F44B
:103DC000C901DA010097A105B10509F403C2863FD4
:103DD000EFE09E07E0E0AE07E0E0BE0718F49924AC
:103DE00093940DC0863FFFEF9F07F0E0AF07F0E030
:103DF000BF0718F023E0922E02C002E0902E12E0DE
:103E0000E12EF12C012D112DE80EF91E0A1F1B1FAA
:103E1000A985BA855A96ED92FD920D931C935D97F4
:103E2000A20CB31CC41CD51CFD01A2A6B3A6C4A63B
:103E3000D5A62D813E814F815885220D331D441D0D
:103E4000551D92962D933D934D935C93959718969F
:103E50008D919C911997B3E09B16D9F5892B09F0A8
:103E6000B9C1EF59FF4F208130E040E050E0522FC0
:103E7000442733272227829190E0A0E0B0E0DC01C4
:103E800099278827282B392B4A2B5B2B3297819136
:103E900090E0A0E0B0E0282B392B4A2B5B2B9081DF
:103EA000EF55F040FA87E98780E0A0E0B0E0282BEA
:103EB000392B4A2B5B2B26A337A340A751A7A80178
:103EC000970162E0220F331F441F551F6A95D1F7F7
:103ED00035C0892B09F47EC169817A818B819C81EF
:103EE000260F371F481F591FA985BA8596962D930F
:103EF0003D934D935C939997D801C701880F991F03
:103F0000AA1FBB1FE2E09E1619F49C01AD0116C06A
:103F10009C01AD012E0D3F1D401F511F5695479529
:103F20003795279561E070E080E090E0E622F72287
:103F3000082319232E0D3F1D401F511F21503E4FB6
:103F40004F4F5F4F89E056954795379527958A954E
:103F5000D1F7E985FA85868D978DA0A1B1A1821749
:103F60009307A407B50708F435C18FEF9FEFAFEFB4
:103F7000BFEF86879787A08BB18B12861386148636
:103F80001586B3E09B1609F000C11582ED59FF4F6D
:103F9000308120E08291E256F040FA87E98790E094
:103FA000282B392B40E050E0220D331D441D551DB8
:103FB000228B338B448B558BBF016E5C7F4F81818D
:103FC00001E00E94DE7E892B09F0DFC0E985FA85D9
:103FD000EF5CFD4F908180E02291E053F240FA8740
:103FE000E98730E0822B932B85559A4A09F0CDC0A2
:103FF000A985BA85D5962C91D59730E040E050E060
:10400000522F442733272227D4968C9190E0A0E0AA
:10401000B0E0DC0199278827282B392B4A2B5B2B12
:10402000E985FA8582A990E0A0E0B0E0282B392B41
:104030004A2B5B2B93A980E0A0E0B0E0282B392B22
:104040004A2B5B2B225532454146514409F09DC015
:1040500029853A85275E3D4FD9012C9130E040E01B
:1040600050E0522F4427332722278E91BA87A98701
:1040700090E0A0E0B0E0DC0199278827282B392BBD
:104080004A2B5B2BE985FA853297819190E0A0E07D
:10409000B0E0282B392B4A2B5B2B9081E751F24063
:1040A000FA87E98780E0A0E0B0E0282B392B4A2B83
:1040B0005B2B225732474144514609F066C029859F
:1040C0003A852F5D3D4FD9012C9130E040E050E022
:1040D000522F4427332722278E91BA87A98790E051
:1040E000A0E0B0E0DC0199278827282B392B4A2B48
:1040F0005B2BE985FA853297819190E0A0E0B0E0F2
:10410000282B392B4A2B5B2B9081EF51F24080E01A
:10411000A0E0B0E0282B392B4A2B5B2BDF01228754
:10412000338744875587A35EBD4F2C9130E040E034
:1041300050E0522F4427332722278E91BA87A98730
:1041400090E0A0E0B0E0DC0199278827282B392BEC
:104150004A2B5B2BE985FA853297819190E0A0E0AC
:10416000B0E0282B392B4A2B5B2B9081EB51F2408E
:10417000FA87E98780E0A0E0B0E0282B392B4A2BB2
:104180005B2B26873787408B518BE985FA85908298
:1041900080911E0A90911F0A019690931F0A8093A6
:1041A0001E0A97838683A985BA859E961D921D92C5
:1041B0001D921C92D19714961C92E985FA85168A55
:1041C000178A108E118E03C02AE030E005C020E06F
:1041D00030E002C02DE030E0C9012A960FB6F89415
:1041E000DEBF0FBECDBFCF91DF911F910F91FF902A
:1041F000EF90DF90CF90BF90AF909F908F907F9087
:104200006F905F904F903F902F9008955F926F92C4
:104210007F928F929F92AF92BF92CF92DF92EF9256
:10422000FF920F931F93CF93DF933C014B01EB0160
:104230002996FC0186859785A089B1890097A105FB
:10424000B10509F4B7C002891389D8011C965C90A6
:10425000EE24FF24C52CDD24B8E0CB22DD24F801B8
:10426000EE0DFF1D8081282F30E02032310509F14D
:104270002530310511F425EE30E0C114D10439F0B8
:10428000C901815490404A9710F4205E3F4FC90104
:1042900061E070E00E94911B009711F48FE390E0C1
:1042A000899399930894E11CF11CE8E0EE16F1045F
:1042B000B1F6D80118968C91803211F47E0132C08B
:1042C0008EE290E0FE01819391937F015801C52C0D
:1042D000DD24F0E1CF22DD242896D50118968C91BB
:1042E000282F30E020323105E9F0C114D10439F033
:1042F000C901815490404A9710F4205E3F4FC90194
:1043000061E070E00E94911B009711F48FE390E050
:10431000F701819391937F010894A11CB11CEC17C4
:10432000FD07D9F6D8011B968C911B97E40188876D
:104330005F962C915F9730E040E050E0522F442789
:10434000332722275E968C9190E0A0E0B0E0DC015C
:1043500099278827282B392B4A2B5B2BF801848D32
:1043600090E0A0E0B0E0282B392B4A2B5B2B958DF9
:1043700080E0A0E0B0E0282B392B4A2B5B2BD40146
:104380002D933D934D935C931397918D80E0208DF9
:1043900030E0822B932B15969C938E9314979789DC
:1043A00080E0268930E0822B932B17969C938E9386
:1043B0001697E70119821882E401EBA1FCA130975E
:1043C000B1F18DA19EA1892B91F1E3018E859F858D
:1043D000A889B9890097A105B10509F1888D998D42
:1043E0008F5F9F4FE1F00E88DF89C02DBF0120E075
:1043F00030E00FC0D40195968D919C9196970197CE
:104400002817390760F4DB014D935D93BD012F5FE1
:104410003F4F499159914115510561F702C020E084
:1044200030E0220F331FE20FF31F11821082DF9161
:10443000CF911F910F91FF90EF90DF90CF90BF90A1
:10444000AF909F908F907F906F905F9008956F9244
:104450007F928F929F92AF92BF92CF92DF92EF9214
:10446000FF920F931F93CF93DF93EC014A015B01FF
:10447000CEA4DFA4E8A8F9A8C416D506E606F70678
:1044800009F44FC08C818823A1F1E2E36E2E712CD8
:104490006C0E7D1E8981B301A701960101E00E9487
:1044A0003C7F892BD9F51C828E8D9F8DA8A1B9A147
:1044B0002AA13BA14CA15DA1820F931FA41FB51F90
:1044C000C816D906EA06FB06A0F41B8110C08E8D23
:1044D0009F8DA8A1B9A1C80ED91EEA1EFB1E898115
:1044E000B301A701960101E00E943C7F11501230F8
:1044F00070F781149104A104B10499F0BE016E5CBF
:104500007F4F8981A501940101E00E94DE7E892B05
:1045100029F48EA69FA6A8AAB9AA03C021E030E07C
:1045200002C020E030E0C901DF91CF911F910F91CF
:10453000FF90EF90DF90CF90BF90AF909F908F90C3
:104540007F906F9008956F927F928F929F92AF921B
:10455000BF92CF92DF92EF92FF920F931F93CF9370
:10456000DF93EC016A017B0148015901423051059A
:104570006105710508F4ECC08A8D9B8DAC8DBD8DF5
:10458000481759076A077B0708F0E2C08881823024
:1045900009F472C0833009F493C0813019F002E04D
:1045A00010E0D3C03A01769467946C0C7D1CA30193
:1045B000452F5527469560E070E08AA19BA1ACA1EC
:1045C000BDA1480F591F6A1F7B1FCE010E942722E1
:1045D0008C01009709F0B9C0D301B170E1E0CE229F
:1045E000DD24C114D10451F0FE01EA0FFB1F82A9A2
:1045F0008F70982D9295907F982B01C0982DAC0FBD
:10460000BD1FD2969C9373010894E11CF11C81E0BC
:104610008C83A701452F5527469560E070E08AA15D
:104620009BA1ACA1BDA1480F591F6A1F7B1FCE01E2
:104630000E9427228C01009709F087C0A7015170C2
:10464000CD2849F094E0B694A794979487949A95CE
:10465000D1F7682D0BC0FE01E40FF51F62A9607F42
:10466000BB27AB2D9A2D892D8F70682B4C0F5D1FAA
:10467000DA01D2966C9369C0452F562F672F7727A2
:104680008AA19BA1ACA1BDA1480F591F6A1F7B1F26
:10469000CE010E9427228C01009709F056C0CC0C55
:1046A000DD1CEE1CFF1CF601F170DE01AE0FBF1F1A
:1046B000D2968C92D297FD01892D992783AB45C064
:1046C000E7E07695679557954795EA95D1F78AA1E2
:1046D0009BA1ACA1BDA1480F591F6A1F7B1FCE0132
:1046E0000E9427228C01009781F562E0CC0CDD1C32
:1046F000EE1CFF1C6A95D1F7F601F170F296BE012F
:104700006E0F7F1FF297DB0113968C9190E0A0E073
:10471000B0E0B82FAA2799278827EC0FFD1F8070DB
:104720009070A070B07F88299929AA29BB2982ABF3
:10473000292F3327FB0121839D01442755272283FD
:104740008B2F9927AA27BB27838381E08C8302C004
:1047500002E010E0C801DF91CF911F910F91FF900F
:10476000EF90DF90CF90BF90AF909F908F907F9011
:104770006F900895BF92CF92DF92EF92FF920F93C6
:104780001F93CF93DF93EC017A018B0142305105E7
:104790006105710508F4E5C08A8D9B8DAC8DBD8DDA
:1047A000481759076A077B0708F0DBC08881823009
:1047B00009F45BC0833009F47DC0813009F0D7C0B3
:1047C0006A01D694C794C40ED51EA601452F55275D
:1047D000469560E070E08AA19BA1ACA1BDA1480F05
:1047E000591F6A1F7B1FCE010E942722892B09F0C7
:1047F000BEC0F601F170EC0FFD1FB2A80894C11CF9
:10480000D11CA601452F5527469560E070E08AA18E
:104810009BA1ACA1BDA1480F591F6A1F7B1FCE01F0
:104820000E942722892B09F0A2C02B2D30E0AFEF88
:10483000B1E0CA22DB22CC0EDD1EF60192A980E097
:10484000282B392BC70181709070892B31F014E02F
:10485000369527951A95E1F729C0790100E010E017
:104860008FEF9FE0A0E0B0E077C0452F562F672F75
:1048700077278AA19BA1ACA1BDA1480F591F6A1F30
:104880007B1FCE010E942722892B09F070C0EE0CFD
:10489000FF1C001F111FD701B170FE01EA0FFB1FA3
:1048A00022A930E093A980E0282B392B790100E080
:1048B00010E061C0F7E07695679557954795FA95B2
:1048C000D1F78AA19BA1ACA1BDA1480F591F6A1FB6
:1048D0007B1FCE010E942722892B09F048C0E2E00D
:1048E000EE0CFF1C001F111FEA95D1F7F701F170C4
:1048F000F2969E012E0F3F1FF297D90112968C91CE
:1049000090E0A0E0B0E08C01FF24EE24D9011396E2
:104910008C9190E0A0E0B0E0B82FAA2799278827D3
:10492000E82AF92A0A2B1B2BD90111969C9180E0C9
:10493000A0E0B0E0E82AF92A0A2B1B2BEC0FFD1FA0
:1049400082A990E0A0E0B0E0E82AF92A0A2B1B2B0C
:104950008FEF9FEFAFEFBFE0E822F9220A231B237E
:104960000AC051E0E52EF12C012D112D04C0EE24DA
:10497000EA94FE2C8701B701C801DF91CF911F9106
:104980000F91FF90EF90DF90CF90BF900895AF927E
:10499000BF92CF92DF92EF92FF920F931F93CF932C
:1049A000DF935C016B01DC0115967C936E93149789
:1049B00016964D915D916D917C91199741305105FD
:1049C0006105710509F4D5C0ED91FC91828D938D3F
:1049D000A48DB58D481759076A077B0708F0C9C031
:1049E000411551056105710581F58081833049F4D8
:1049F00046A157A160A571A5411551056105710535
:104A000021F5F50112861386148615860190F08132
:104A1000E02D80859185C816D90608F0AAC0C60188
:104A2000A4E096958795AA95E1F7A0E0B0E026A1CD
:104A300037A140A551A5820F931FA41FB51FF501F3
:104A400086879787A08BB18B7BC08281082F10E06F
:104A5000F4E0000F111FFA95E1F725C0CE010E9486
:104A6000BA23AB01BC014F3FFFEF5F07FFEF6F07BA
:104A7000FFEF7F0719F421E030E07DC0423051059F
:104A80006105710508F475C0D501ED91FC91828D29
:104A9000938DA48DB58D481759076A077B0708F0D9
:104AA00068C0C01AD10AF501C081D181C016D106F3
:104AB000A8F6D5011A964D935D936D937C931D973F
:104AC000EEEFEE2EEFEFFE2EEFEF0E2FEFEF1E2F9D
:104AD000E40EF51E061F171F8A8D9B8DAC8DBD8DB4
:104AE0000297A109B109E816F9060A071B0728F081
:104AF00020E030E040E050E012C02A8130E040E0A9
:104B000050E0C801B7010E943EF49B01AC018AA5A8
:104B10009BA5ACA5BDA5280F391F4A1F5B1FC60169
:104B200064E0969587956A95E1F7A0E0B0E0280FDC
:104B3000391F4A1F5B1FF50126873787408B518B32
:104B4000FFE0CF22DD2435E0CC0CDD1C3A95E1F707
:104B500082E390E0C80ED91ED5018D919C911197EA
:104B60008C0D9D1D53969C938E93529720E030E0C0
:104B700002C022E030E0C901DF91CF911F910F9177
:104B8000FF90EF90DF90CF90BF90AF9008954F923D
:104B90005F926F927F928F929F92AF92BF92CF92CD
:104BA000DF92EF92FF920F931F93CF93DF93EC016D
:104BB0002A013B01411551056105710599F48A846B
:104BC0009B84AC84BD8481149104A104B10409F1D7
:104BD0008A8D9B8DAC8DBD8D88169906AA06BB0665
:104BE000C0F41CC00E94BA239B01AC016230710565
:104BF0008105910508F48AC08A8D9B8DAC8DBD8D91
:104C0000281739074A075B0708F48EC05301420191
:104C100005C011E0812E912CA12CB12C75016401ED
:104C20000894C11CD11CE11CF11C8A8D9B8DAC8D9C
:104C3000BD8DC816D906EA06FB0660F022E0821692
:104C40009104A104B10408F46BC0B2E0CB2ED12CC6
:104C5000E12CF12CCE01B701A6010E94BA239B01E1
:104C6000AC016115710581059105A9F02F3F8FEF0A
:104C700038078FEF48078FEF580709F455C02130E8
:104C800031054105510509F44FC0C814D904EA049F
:104C9000FB0431F645C0BC2CAD2C9E2C8F2CCE01D4
:104CA000A601B7010FEF1FEF2FEF3FE00E94A322F5
:104CB000009751F5411451046104710449F0CE018B
:104CC000B301A201860197010E94A3220097E1F49B
:104CD000BA86AB869C868D868E859F85A889B98984
:104CE0008F3F2FEF92072FEFA2072FEFB20749F068
:104CF0000197A109B1098E879F87A88BB98B81E0A5
:104D00008D83A701960110C0019729F021E030E0C2
:104D100040E050E009C02FEF3FEF4FEF5FEF04C0DE
:104D200020E030E040E050E0B901CA01DF91CF91CE
:104D30001F910F91FF90EF90DF90CF90BF90AF90B9
:104D40009F908F907F906F905F904F9008959F926B
:104D5000AF92BF92CF92DF92EF92FF920F931F9389
:104D6000CF93DF93EC017A018B014230510561054D
:104D7000710508F45AC08A8D9B8DAC8DBD8D481786
:104D800059076A077B0708F443C04FC0CE01B8013A
:104D9000A7010E94BA235B016C01611571058105B1
:104DA000910509F445C081E0A816B104C104D104FD
:104DB000E1F12FEFA2162FEFB2062FEFC2062FEF71
:104DC000D20619F421E030E035C0CE01B801A701C8
:104DD00000E010E020E030E00E94A3229C01009758
:104DE00049F58E859F85A889B9898F3F2FEF920756
:104DF0002FEFA2072FEFB20741F00196A11DB11DC1
:104E00008E879F87A88BB98B9D828601750102C012
:104E1000992493948A8D9B8DAC8DBD8DE816F906EF
:104E20000A071B0708F4B2CF03C022E030E002C03B
:104E300020E030E0C901DF91CF911F910F91FF90E9
:104E4000EF90DF90CF90BF90AF909F9008954F92DA
:104E50005F926F927F928F929F92AF92BF92CF920A
:104E6000DF92EF92FF920F931F93CF93DF93EC01AA
:104E70006B016C807D800894611C711C611471044D
:104E800009F44EC18E859F85A889B9890097A1052F
:104E9000B10509F445C11FE0412E512C4620572091
:104EA0004114510409F028C10196A11DB11D8E873E
:104EB0009F87A88BB98B4A855B856C857D85E8814A
:104EC000F981411551056105710539F48085918598
:104ED0006816790608F410C123C1828190E0019719
:104EE0009301A4E036952795AA95E1F782239323B1
:104EF000892B09F001C1CF010E94BA237B018C01EB
:104F0000623071058105910508F40DC18FEFE81637
:104F10008FEFF8068FEF08078FEF180709F406C127
:104F2000E881F981828D938DA48DB58DE816F906FF
:104F30000A071B0708F4A7C0CD2809F4F1C04A8569
:104F40005B856C857D85CF010E94C7257B018C0127
:104F5000611571058105910519F427E030E0E8C07D
:104F600091E0E916F1040105110509F4DCC0AFEF89
:104F7000EA16AFEFFA06AFEF0A07AFEF1A0709F428
:104F8000D5C08881998140E050E060E070E00E94E7
:104F90002722892B09F0CAC0E881F981F29680E0C6
:104FA00092E001C011920197BFEF8F3F9B07D1F7AD
:104FB000888099804EEFA42E4FEFB42E4FEFC42E71
:104FC0004FEFD42EAE0CBF1CC01ED11EF401828D3B
:104FD000938DA48DB58D0297A109B109A816B906C4
:104FE000CA06DB0628F020E030E040E050E015C0C3
:104FF000D40112962C9130E040E050E0C601B5019A
:105000000E943EF49B01AC01F40182A593A5A4A5E6
:10501000B5A5280F391F4A1F5B1FD4019E962D93FB
:105020003D934D935C93D197DD24CC24C3941AC057
:10503000C4828881998140E050E060E070E00E9485
:105040002722892B09F072C0E881F98186A597A5EE
:10505000A0A9B1A90196A11DB11D86A797A7A0ABD4
:10506000B1ABD394E881F9818281D81608F386A583
:1050700097A5A0A9B1A98D199109A109B10986A780
:1050800097A7A0ABB1ABEA86FB860C871D87C880CB
:10509000D9808EEF9FEFAFEFBFEFE80EF91E0A1F2A
:1050A0001B1FF601828D938DA48DB58D0297A109EA
:1050B000B109E816F9060A071B0728F020E030E0DE
:1050C00040E050E015C0D60112962C9130E040E04F
:1050D00050E0C801B7010E943EF49B01AC01F6010B
:1050E00082A593A5A4A5B5A5280F391F4A1F5B1F4C
:1050F0002E873F87488B598B7D826C8235E0440C2C
:10510000551C3A95E1F782E390E0480E591E8881DC
:105110009981840D951D9B8B8A8B20E030E008C01F
:1051200024E030E005C022E030E002C021E030E0C1
:10513000C901DF91CF911F910F91FF90EF90DF9008
:10514000CF90BF90AF909F908F907F906F905F9027
:105150004F9008952F923F924F925F926F927F925D
:105160008F929F92AF92BF92CF92DF92EF92FF9277
:105170000F931F93CF93DF935C0160E070E00E9478
:10518000C724AC01009709F0E4C055245A94442484
:105190004A9422242A94322CD5011E964D915D9179
:1051A0006D917C9151978D919C910E942722AC0129
:1051B000009709F0CEC0F50102891389D8012C911E
:1051C000222319F444E050E0C4C0F8018385253E51
:1051D00009F4B4C08F7383FF04C08F3009F0AEC0F0
:1051E00003C08F3009F07AC0D50156968D919C91FD
:1051F0005797892B09F4A4C026FF0EC0F8014584F7
:1052000014968D919C91159759969C938E935897CF
:105210003FEB532E522203C0251509F08FC0D80151
:105220001D968C911D97481609F088C0F501868857
:1052300097888C9190E08F7B2DE030E0829FE00199
:10524000839FD00D929FD00D11242D9727EFC22E52
:1052500027E0D22E91E0E92EF12CD6018C91F801B5
:10526000E80FF11D71806624808190E086299729DE
:10527000E114F104B1F00E94BC1B7C01C337D105DD
:1052800008F05CC0FE01EE0FFF1FE80DF91D8081E4
:1052900091810E94BC1BE816F90609F04FC02196C7
:1052A00004C08F5F9F4F09F049C00894C11CD11CF6
:1052B000E4E0CE16E8E0DE0681F6D8018C9186FFA8
:1052C0005CC0EF2809F459C0CC0FDD1F8C0E9D1E69
:1052D000F40180819181892B89F54FC0552089F493
:1052E000F8012BE030E090E0892F8795882787959B
:1052F0009695982B8191980F21503040A9F7491627
:1053000041F1D50159963C922E9258975496ED91C1
:10531000FC915597838580FD11C0DF01F8012BE0DA
:1053200030E0215030408FEF2F3F380791F09081CF
:105330008C91981719F431961196F3CF55245A94FD
:10534000C50160E070E00E942727AC01009709F4D6
:1053500023CFCA01DF91CF911F910F91FF90EF9062
:10536000DF90CF90BF90AF909F908F907F906F9085
:105370005F904F903F902F9008955A94E1CF2F92D5
:105380003F924F925F926F927F928F929F92AF92D5
:10539000BF92CF92DF92EF92FF920F931F93DF9312
:1053A000CF9300D000D000D0CDB7DEB77C012B0169
:1053B000DB018D919C918F32910519F08C3591050F
:1053C00061F4E2E0F0E04E0E5F1ED70116961D92EA
:1053D0001D921D921C9219970CC0D701ED91FC9162
:1053E00086899789A08DB18DF70186839783A087E1
:1053F000B187D2018D919C91809798F4C70160E0AC
:1054000070E00E94C7249C01F701138A128AF6C13A
:10541000220C331C420C531C04C062E070E0460EA8
:10542000571ED2018D919C9111978F329105A9F34E
:105430008C35910591F3F701A688B788B5018501F0
:1054400020E030E04D915C91119719010894211CE6
:10545000311C4032510528F14F32510509F4E8C1A1
:105460004C35510509F4E4C1F4E72F16310409F471
:10547000C0C14038510570F4E0E0F1E001C0319660
:105480008081882339F0992787FD909584179507A7
:10549000B1F7AFC1F801419351938F011296910179
:1054A000D1CF3E832D83E4E0DE2E2130310591F013
:1054B0002230310539F4F501828193818E9751F0C4
:1054C0003E832D83F901E150F040EE0FFF1FEA0DFE
:1054D000FB1D46C0D5018D919C918E9789F7C9011E
:1054E000880F991FA80EB91EF5011182108280E065
:1054F00090E0D7015496ED91FC9155978217930750
:1055000010F040E201C04EE2E80FF91F408301961F
:105510008B30910571F7D7015496ED91FC91559719
:10552000B0E2DB2A11C1808191818032910591F036
:105530008E9781F0ED81FE81EE0FFF1FEA0DFB1DBE
:1055400011821082D7015496ED91FC9155978BE012
:1055500090E00DC08D819E8101979E838D8332974F
:10556000AD81BE81AB2BF9F644C1B0E2B193019796
:105570002FEF8F3F9207C9F700E010E004C00F5FE4
:105580001F4F6E5F7F4FDB018D919C9180329105A3
:10559000B1F38E97A1F30115110511F0B3E0DB2AE9
:1055A000ED81FE81E150F040EE0FFF1FEA0DFB1D83
:1055B00010C06D817E81615070407E836D83329713
:1055C000672B39F4B8E06B2E712C88249924CC24F5
:1055D00005C0808191818E9761F7F4CFF801EE0FBD
:1055E000FF1FEA0DFB1DA081B181109709F47AC05D
:1055F0000F5F1F4FA032B10541F0AE32B10541F44B
:105600008D819E810817190719F093E0D92AE6CFFA
:105610008614970428F4ED81FE810E171F07F9F414
:10562000FBE06F16710419F423E0D22A5BC06D8190
:105630007E810617170741F073E0D72A8D819E817E
:105640008017910708F44EC0CC0CCC0C0D811E8144
:10565000EBE06E2E712C78E0872E912CBFCFA03816
:10566000B10588F0CD0160E070E00E94911BDC0183
:10567000009729F0A950B94F8C91A82FB0E092E083
:10568000D92A1097A1F0E9E0F1E001C031968081BC
:10569000882339F0992787FD90958A179B07B1F7E2
:1056A00006C0CD01815490404A9730F008C0A3E075
:1056B000DA2AAFE5B0E00BC0E2E0CE2A08C0CD01A7
:1056C000815690404A9718F4F1E0CF2A9097F7015D
:1056D00084899589880D991DFC01A0830894811CFB
:1056E000911C7CCFD7015496ED91FC915597808108
:1056F000853E11F4B5E0B083E8E06E16710411F454
:10570000CC0CCC0C2C2D30E0A9014C7050704C30DE
:10571000510529F0C90183709070039711F4F2E0EC
:10572000DF2AD1FC0CC0237030702130310511F418
:1057300020E1D22A4430510511F468E0D62AD7017D
:105740005496ED91FC915597D386C7010E94AA28E3
:105750009C01D7015496ED91FC91559783852115B5
:105760003105D1F02430310509F048C090E0AC019A
:105770004470507085FF0DC0F701168217821086A5
:105780001186138A128A452B09F442CE20E030E0BC
:1057900035C0452B89F132C082FD30C0D701529609
:1057A000ED91FC915397838584FF26C0B589BA8318
:1057B0001982248930E069817A81262B372B40E0D9
:1057C00050E0A90133272227738D7C831B82828DB1
:1057D00090E0AB81BC818A2B9B2BA0E0B0E0282B12
:1057E000392B4A2B5B2BF701268337834087518760
:1057F0000FCE26E030E002C025E030E0C901269659
:105800000FB6F894DEBF0FBECDBFCF91DF911F91D1
:105810000F91FF90EF90DF90CF90BF90AF909F904F
:105820008F907F906F905F904F903F902F90089552
:105830003E832D83DD2439CE0F931F93DF93CF93C7
:10584000CDB7DEB72E970FB6F894DEBF0FBECDBF33
:105850008C017E876D87CE010D96B80140E00E94D5
:10586000151D9C01009709F050C0CE010196D8018A
:1058700055969C938E93549781E29AE057969C9309
:105880008E9356976D857E85C8010E94BF299C0125
:105890000097B1F5D8015296ED91FC91539730974E
:1058A000F9F0838584FF2FC0358920E0848990E05A
:1058B000282B392B40E050E0A90133272227938D74
:1058C00080E0628D70E0862B972BA0E0B0E0282B63
:1058D000392B4A2B5B2BF80126833783408751876E
:1058E000D801ED91FC9111978681978113969C9335
:1058F0008E931297C80160E070E00E94C7249C015B
:105900002430310511F425E030E0C9012E960FB6A0
:10591000F894DEBF0FBECDBFCF91DF911F910F91E5
:1059200008957F928F929F92AF92BF92CF92DF9213
:10593000EF92FF920F931F93DF93CF93CDB7DEB714
:105940002C970FB6F894DEBF0FBECDBF7C01DC01F3
:105950005496CD90DC9055975696BC905697579696
:10596000AC90D601FE0131969E01235F3F4F02C0ED
:105970008D918193E217F307D9F78C8585FF03C0DA
:1059800046E050E059C180FF2FC0F6011386D701D1
:1059900057961C921E92569701E010E04E01089413
:1059A000811C911CC601B4014B2D5A2D98010E94F7
:1059B000D61BC7010E94AA28AC01009741F40F5FD3
:1059C0001F4F0436110571F747E050E035C18430B0
:1059D000910509F031C18C85F6018387D701569670
:1059E000BC9256975796AC928C8581FD04C061E0BD
:1059F000A62EB12C14C08B2D9A2D9C01F90120E00C
:105A000030E002C02F5F3F4F81919191892BD1F7F8
:105A1000C90149966DE070E00E945DF45B01C70129
:105A200060E070E00E94C724AC01009709F004C157
:105A3000CC24DD2400E010E0F7014685578560891D
:105A40007189808191810E942722AC01009709F021
:105A5000F3C0D7015296ED91FC915397E081E53E5A
:105A600029F0EE2319F000E010E00CC0011511053B
:105A700019F4F701C480D5800F5F1F4F0A151B056D
:105A800009F4EFC0C70161E070E00E942727AC0174
:105A9000009791F2D1C0C701B6010E94C724AC01A2
:105AA000009709F0C9C0D70154968C915497559628
:105AB0009C919C01F9012BE030E0DD248D2D879530
:105AC00088278795D694D82A8191D80E21503040C6
:105AD000A9F70894A108B1085FE0752E4DE0842E67
