:200000000C9403110C942E110C942E110C942E110C942E110C942E110C942E110C942E1113
:200020000C942E110C9414890C942E110C942E110C942E110C943C880C942E110C942E11E5
:200040000C940D7F0C946A7F0C943BC00C942E110C94AD5B0C94E45B0C942E110C942E112C
:200060000C942E110C942E110C942E110C942E110C942E110C942E110C942E110C942E1188
:200080000C942E110C942E110C942E1100000100130012000F001C00FFFF170016000F0038
:2000A0001A00FFFF0C000D000F001F00FFFFFFFFFFFF030004000E000A000B000F000100AD
:2000C00002000100556E6B6E6F776E20636F6D6D616E643A00536574204D6963726F7374C7
:2000E000657070696E6700436F6E66696775726174696F6E20726573657420746F206465F6
:200100006661756C74732E00436F6E66696775726174696F6E206C6F616465642066726FDA
:200120006D20454550524F4D2E00436F6E66696775726174696F6E2073746F72656420749F
:200140006F20454550524F4D2E006C696E656172204C3A002C206D6F7665206166746572C4
:20016000203D20002C206261636B736C617368203D20002C2072657472616374203D2000CF
:200180006D696E2064697374616E6365203D20004F50532066617374206D6F64653A004F25
:2001A000505320636C6173736963206D6F64653A004F50532064697361626C6564002C2005
:2001C00073706565643D00206C696E6561722073746570733A00205A4A65726B3A004A65BE
:2001E000726B3A004C20004820007A5F6D696E3A004C2000482000795F6D696E3A004C2027
:2002000000482000785F6D696E3A00206D696E0020686F757273200020646179732000500B
:2002200072696E74696E672074696D653A00206D005072696E7465642066696C616D656E5B
:20024000743A004649524D574152455F4E414D453A3344437562655F313039204649524D9C
:20026000574152455F55524C3A687474703A2F2F7777772E70696361736F2D33642E727580
:200280002050524F544F434F4C5F56455253494F4E3A312E30204D414348494E455F54595D
:2002A00050453A3344437562655F3230302045585452554445525F434F554E543A31205230
:2002C000455045544945525F50524F544F434F4C3A3200CFF0EEE3F0E5E220F1F2EEEBE0D0
:2002E00000CFF0EEE3F0E5E220FDEAF1F2F0F3E4E5F0E00020746F2000536574206F75748A
:200300007075742000486F6D65205A00486F6D65205900486F6D65205800466C6F774D7504
:200320006C7469706C793A0053706565644D756C7469706C793A0020403A0020423A0054D0
:200340003A0020453A00205A3A0020593A00583A00616476616E6365204C205B303D6F66D0
:20036000665D00657874727564657220636F6F6C6572207370656564205B302D3235355DA1
:200380000064697374616E636520746F2072657472616374207768656E2068656174696E8F
:2003A00067205B6D6D5D0074656D702E20666F722072657472616374696F6E207768656EAC
:2003C0002068656174696E67205B435D0074656D702E2073746162696C697A652074696DCD
:2003E00065205B735D00592D6F6666736574205B73746570735D00582D6F6666736574200D
:200400005B73746570735D00504944206D61782076616C7565205B302D3235355D0050490B
:200420004420442D6761696E0050494420492D6761696E0050494420502D6761696E0050CD
:200440004944206472697665206D696E00504944206472697665206D617800686561742032
:200460006D616E61676572205B302D315D00616363656C65726174696F6E205B6D6D2F735A
:200480005E325D007374617274206665656472617465205B6D6D2F735D006D61782E206693
:2004A00065656472617465205B6D6D2F735D00737465707320706572206D6D004265642053
:2004C000504944206D61782076616C7565205B302D3235355D004265642050494420442D32
:2004E0006761696E004265642050494420492D6761696E004265642050494420502D6761B3
:20050000696E0042656420504944206472697665206D696E004265642050494420647269F7
:200520007665206D6178004265642048656174204D616E61676572205B302D325D004F50EC
:20054000532072657472616374696F6E206261636B6C617368205B6D6D5D004F505320725E
:20056000657472616374696F6E206C656E677468205B6D6D5D004F5053206D696E2E206456
:20058000697374616E636520666F722066696C2E2072657472616374696F6E205B6D6D5D77
:2005A000004F5053206D6F76652061667465722078252072657472616374205B255D004F22
:2005C0005053206F7065726174696F6E206D6F6465205B303D4F66662C313D436C6173732F
:2005E00069632C323D466173745D005A2D617869732074726176656C20616363656C6572D0
:200600006174696F6E205B6D6D2F735E325D00592D617869732074726176656C20616363AB
:20062000656C65726174696F6E205B6D6D2F735E325D00582D617869732074726176656C2B
:2006400020616363656C65726174696F6E205B6D6D2F735E325D005A2D617869732061638C
:2006600063656C65726174696F6E205B6D6D2F735E325D00592D6178697320616363656C1D
:2006800065726174696F6E205B6D6D2F735E325D00582D6178697320616363656C657261FA
:2006A00074696F6E205B6D6D2F735E325D005A206D6178206C656E677468205B6D6D5D0088
:2006C00059206D6178206C656E677468205B6D6D5D0058206D6178206C656E677468205B2C
:2006E0006D6D5D005A20686F6D6520706F73205B6D6D5D005920686F6D6520706F73205B6D
:200700006D6D5D005820686F6D6520706F73205B6D6D5D004D61782E205A2D6A65726B2096
:200720005B6D6D2F735D004D61782E206A65726B205B6D6D2F735D005A2D6178697320684D
:200740006F6D696E67206665656472617465205B6D6D2F735D00592D6178697320686F6D2C
:20076000696E67206665656472617465205B6D6D2F735D00582D6178697320686F6D696E12
:2007800067206665656472617465205B6D6D2F735D005A2D61786973206D61782E20666583
:2007A000656472617465205B6D6D2F735D00592D61786973206D61782E206665656472611A
:2007C0007465205B6D6D2F735D00582D61786973206D61782E206665656472617465205B43
:2007E0006D6D2F735D005A2D6178697320737465707320706572206D6D00592D61786973F9
:2008000020737465707320706572206D6D00582D6178697320737465707320706572206DAB
:200820006D005072696E74657220616374697665205B735D0046696C616D656E742070724E
:20084000696E746564205B6D5D00426175647261746500416464696E672066696C616D6542
:200860006E743A0050726F746F636F6C2076657273696F6E206368616E6765642C207570C9
:2008800067726164696E67004550523A3020004550523A3120004550523A3220004550523F
:2008A0003A332000457874722E0001025072696E7465722073657420696E746F206472793E
:2008C0002072756E206D6F646520756E74696C207265737461727421003A20776F726B69C6
:2008E0006E67003A2074656D702073656E736F72206465666563740065787472756465725B
:20090000200068656174656420626564002000200020004D54454D503A0050494420417531
:20092000746F74756E652066696E6973686564202120506C61636520746865204B702C20E0
:200940004B6920616E64204B6420636F6E7374616E747320696E2074686520636F6E66693D
:200960006775726174696F6E2E6800504944204175746F74756E65206661696C6564212060
:2009800074696D656F757400504944204175746F74756E65206661696C6564212054656D12
:2009A000706572617475726520746F206869676800204B643A2000204B693A2000204B70DA
:2009C0003A200020436C617373696320504944002054753A2000204B753A2000206D6178FB
:2009E0003A2000206D696E3A200020643A200020626961733A2000504944204175746F74DE
:200A0000756E65207374617274001C151C141E141422DB0A4B0B9F0B0F0C5F0CD70C270DF5
:200A2000770D5461726765744265643A00496620796F75206E6565642061206869676865F8
:200A4000722074656D70657261747572652C20796F75276C6C206861766520746F206368FC
:200A6000616E676520796F7572206669726D7761726520636F6E66696775726174696F6ED7
:200A80002E005461726765742074656D706572617475726520657863656564732048454104
:200AA0005445445F4245445F4D41585F54454D503D003A0054617267657445787472004D87
:200AC0003132302053352050350A4D313137204578747275646572203100000000A00F5C77
:200AE000006009690010097900C0088C007008A2002008BD00D007DE008007050130073492
:200B000001E0066D019006B20140060702F0056D02A005E80250057B0300052B04B004F842
:200B2000046004EB06C003350920037F0B8002650DE001B00E40011D0FF000480FC8006C33
:200B40000FA000ED0F60FFFE0F48FE0400801AD8009808AC012007800250065403C805282A
:200B6000045805FC040005D005B004A4066804780728044C08E8032009B003F4097003C872
:200B80000A38039C0BF802700CB002440D6802180E0802EC0E8801C00F8800F00F00000479
:200BA00000001B54006009640010097400C008840070089C002008B800D007D800800700F6
:200BC0000130072C01E00668019006AC0140060002F0056802A005E00250057403000524FB
:200BE00004B004F0046004DC051004E406C0030408700330092003780B8002600DE001A86D
:200C00000E4001680FA000C00F0000E80F60FF0400700DD8004804AC0158038002D80254EC
:200C200003800228043802FC040002D005C801A4069801780770014C08480120091801F423
:200C400009F000C80AC8009C0BA000700C7000440D3800180E0000EC0EA8FFC00FE8FE04C5
:200C60000056199000F0071C01A006A801F80534028005C00228054C03D804D80398046465
:200C8000045804F00420047C0502040806D4039406A80320077E03AC07560338082E03C442
:200CA0000808035009E202DC09BE02680A9802F40A7002800B4A020C0C2002980CF40124F5
:200CC0000DC401B00D8E013C0E4E01C80E0001540F9000E00F00000400AE16D8007807ACD9
:200CE000012806800272055403F20428049004FC043E04D005F603A406B60378077A034C04
:200D000008420320090A03F409D402C80A9C029C0B6202700C2402440DDE01180E8801EC95
:200D20000E1401C00F2000B8061C00E00670000807C80030072401580784018007E601A844
:200D4000074E02D007B802F807280320089E03480818047008980498081E05C008AA05E816
:200D6000083E061009DA0638097C07600928088809DE08B0099E090000401F450060094F9E
:200D80000010095C00C0086B0070087D0020089200D007AC008007CC003007DE00E0062308
:200DA0000190065E014006A601F005FF01A0056D025005F30200059603B0045A04600440A9
:200DC0000510044806C0036E077003A8082003EB09D002230B8002410C3002390DE001040E
:200DE0000E9001A20E4001170FF000690FA000A20F5000C60F0000DD0FB0FFEB0F60FF204B
:200E00005200204A00204900205000205300204600204500205A002059002058004572726B
:200E20006F723A2057726F6E6720636865636B73756D20004572726F723A42696E6172792E
:200E400020636D642077726F6E6720636865636B73756D2E00446F6E65207072696E746914
:200E60006E672066696C650053442072656164206572726F72004563686F3A006F6B006F3E
:200E80006B00736B6970200020676F7420004572726F723A206578706563746564206C69DB
:200EA0006E6520006F6B006F6B00526573656E643A006572726F723A00494E46004E414ED2
:200EC00000424C4B2000CEE6E8E4E0EDE8E520E7E0E4E0EDE8FF00CEE6E8E4E0EDE8E52046
:200EE000E7E0E4E0EDE8FF0000006889B4C4CD2D5A6248E8E696C55C2D31440F24F4F2DD0F
:200F000073CBCCBB62AEC2A296989C8FA2877E80127A4174F96E256AB965A861E65D6C5AB1
:200F200031572F546151C14E4B4CFB49CE47C145D143FB413F40993E093D8B3B203AC638E5
:200F40007C3740361235F133DC32D331D430DE2FF32E102E362D632C982BD42A172A6129FD
:200F6000B02805286027C02625268F25FD247024E7236123E0226222E8217121FD208D20D2
:200F80001F20B41F4C1FE71E841E241EC51D6A1D101DB81C631C0F1CBE1B6E1B201BD41A4C
:200FA000891A401AF819B2196E192B19E918A9186A182C18EF17B317791740170817D11648
:200FC0009B1665163116FE15CC159A156A153A150B15DD14B014841458142D140214D91311
:200FE000B0138813601339131213EC12C712A2127E125B1238121512F311D211B01190116D
:201000007011501131111211F410D610B8109B107E10621046102B100F10F40FDA0FC00FC1
:20102000A60F8C0F730F5A0F420F290F120FFA0EE20ECB0EB50E9E0E880E720E5C0E460EB7
:20104000310E1C0E070EF30DDF0DCB0DB70DA30D900D7D0D6A0D570D440D320D200D0E0D00
:20106000FC0CEA0CD90CC80CB70CA60C950C850C740C640C540C440C350C250C160C060CCC
:20108000F70BE80BD90BCB0BBC0BAE0BA00B920B840B760B680B5A0B4D0B400B320B250BE1
:2010A000180B0C0BFF0AF20AE60AD90ACD0AC10AB50AA90A9D0A910A850A7A0A6E0A630AD0
:2010C000580A4D0A420A370A2C0A210A160A0C0A010AF709EC09E209D809CE09C409BA0900
:2010E000B009A6099C09920989090000121389095B06C404D0032D03B90262021E02E801AB
:20110000BB01960177015C01450131014739322045300A4D3130342053300A47312058302F
:201120002059313930204631303030302E300A4739310A4731205A353020463430300A4780
:20114000393000446F6E65207072696E74696E672066696C65004563686F3A00CEE6E8E41C
:20116000E0EDE8E520E7E0E4E0EDE8FF002ACDE520EEF2EAEB2E5553422DEAE0E1E5EBFCE9
:201180002A00C8E4E5F220EFE5F7E0F2FC00536F667477617265205265736574005761744F
:2011A0006368646F672052657365740042726F776E206F75742052657365740045787465CE
:2011C000726E616C20526573657400506F776572557000737461727400446F6E65207361C5
:2011E00076696E672066696C652E0057726974696E6720746F2066696C653A200055706C1B
:201200006F6164696E672E2E2E006F70656E206661696C65642C2046696C653A20004E6FB8
:2012200074205344207072696E74696E67002F005344207072696E74696E672062797465D3
:20124000200046696C652073656C6563746564002053697A653A0046696C65206F70656E3E
:2012600065643A0066696C652E6F70656E206661696C656400456E642066696C65206C699A
:20128000737400426567696E2066696C65206C697374006572726F722077726974696E6798
:2012A00020746F2066696C65006572726F72206D6F756E74696E672053444361726400D9A6
:2012C0001A00000000000000000100000000FF0000416374696F6E3A256C6100031027022E
:2012E00000DE1A0310270200E21A0100000100BF120310270200E61A0200000500EA1A03A1
:20130000ED030400F41A03EE030400FC1A03EF030400041B03FA0304000C1B03FB03040075
:20132000141B03FC0304001C1B0200000600241B0200000C00301B52657175657374506107
:201340007573653A0046616E73706565643A0046616E73706565643A0046616E7370656584
:20136000643A3235350046616E73706565643A3139320046616E73706565643A313238003C
:2013800046616E73706565643A36340046616E73706565643A3000CDE5F22053442DEAE0A1
:2013A000F0F2FB00CDE5F22053442DEAE0F0F2FB004739322045300A473120453135204627
:2013C00034303000473238205A0A4739300A4732310A4731205A31353020463430300A4703
:2013E00031205831303020593020463630303000EDE0E6ECE8F2E520EDE020EAEDEEEFEAD5
:20140000F3202D3E00CFEEF1EBE520F1E5F0E2E8F1E020F1EEEFEBE000473120452D31203B
:20142000463430300A47393220453000473238205A0A4739300A4732310A47393220453097
:201440000A4731205A333020463430300A473120583130302059302046363030300A4D314B
:20146000303420533133300A4739322045300A473120452D323020463230300A4D32313454
:20148000205831205935205A310A47393220453000EDE0E6ECE8F2E520EDE020EAEDEEEFDA
:2014A000EAF3202D3E002020CFEEF1EBE520E8E7E2EBE5F7E5EDE8FF00473120452D31205A
:2014C000463430300A47393220453000473238205A0A4739300A4732310A473932204530F7
:2014E0000A4731205A333020463430300A473120583130302059302046363030300A4D31AB
:20150000303420533130300A4739322045300A473120452D32302046313030300A4D3231BB
:2015200034205831205935205A310A47393220453000EDE0E6ECE8F2E520EDE020EAEDEEF4
:20154000EFEAF3202D3E002020CFEEF1EBE520E8E7E2EBE5F7E5EDE8FF00EDE0E6ECE8F2AC
:20156000E520EDE020EAEDEEEFEAF3202D3E00CFEEF1EBE520F1EDFFF2E8FF20E4E5F2E04E
:20158000EBE800EDE0E6ECE8F2E520EDE020EAEDEEEFEAF3202D3E00CFEEF1EBE520F1ED75
:2015A000FFF2E8FF20E4E5F2E0EBE800473120453120463132300A473932204530004739ED
:2015C0003220453000EDE0E6ECE8F2E520EDE020EAEDEEEFEAF3202D3E00202020CFEEF1AF
:2015E000EBE520E7E0EFF0E0E2EAE800473120452D3120463430300A4739322045300047F4
:201600003238205A0A4739300A4732310A4739322045300A4731205A333020463430300AC4
:20162000473120583130302059302046363030300A4D31303420533133300A473932204540
:20164000300A473120452D323020463230300A4D323134205831205935205A310A47393240
:201660002045300020E820F1ECE5EDE8F2E520EFEBE0F1F2E8EA00EDE0E6ECE8F2E520ED45
:20168000E020EAEDEEEFEAF3202D3E002020CFEEF1EBE520E8E7E2EBE5F7E5EDE8FF0047D8
:2016A0003120453120463132300A4739322045300047393220453000EDE0E6ECE8F2E52054
:2016C000EDE020EAEDEEEFEAF3202D3E00202020CFEEF1EBE520E7E0EFF0E0E2EAE8004782
:2016E0003120452D3120463430300A47393220453000473238205A0A4739300A4732310A08
:201700004739322045300A4731205A333020463430300A4731205831303020593020463659
:201720003030300A4D31303420533130300A4739322045300A473120452D3230204631309B
:2017400030300A4D323134205831205935205A310A4739322045300020E820F1ECE5EDE829
:20176000F2E520EFEBE0F1F2E8EA00EDE0E6ECE8F2E520EDE020EAEDEEEFEAF3202D3E007C
:201780002020CFEEF1EBE520E8E7E2EBE5F7E5EDE8FF00473120453120463132300A4739A9
:2017A0003220453000473238205A0A4739300A4732310A4739322045300A4731205A333019
:2017C00020463430300A473120583130302059302046363030300A47393220453000EDE091
:2017E000E6ECE8F2E520EDE020EAEDEEEFEAF3202D3E00202020CFEEF1EBE520E7E0EFF08B
:20180000E0E2EAE800436F6F6C646F776E00202020202005256563022F254563020020201D
:2018200020202005256563022F254563020020CFF0EEE3F0E5E220FDEAF1F2F0F3E4E5F069
:20184000E00000000000202020202004256562022F25456202002020202020042565620287
:201860002F2545620200202020CFF0EEE3F0E5E220F1F2EEEBE000000000004731205A31E5
:2018800020463430300A47312058302059313930204636303030004731205A3120463430F8
:2018A000300A473120583135382E3520593020202046363030300A4731205A302E352046F3
:2018C00034303000CFEEF1EBE520F0E5E3F3EBE8F0EEE2EAE82032F2004731205A312046F9
:2018E0003430300A4731205833382E352020593020202046363030300A4731205A302E35C8
:20190000204634303000EDE0E6ECE8F2E520EDE020EAEDEEEFEAF3202D3E00CFEEF1EBE5C8
:2019200020F0E5E3F3EBE8F0EEE2EAE82031F200E8F1EFEEEBFCE7F3FF20F8E0E1EBEEED1F
:201940002E00CEF2F0E5E3F3EBE8F0F3E9F2E520E7E0E7EEF02C0080250000403800000083
:201960004B00008070000000960000C0DA000000E10000002C010008B2010000C201000070
:20198000F401000084030090D0030000E8030000000000466C6F77726174654D756C74692E
:2019A000706C793A004739310A4731205A2D302E303520463430300A473930004739310A8C
:2019C0004731205A302E303520463430300A473930000200000300481B473238205A0A47BA
:2019E00039300A4732310A4731205831303020593230302046363030300A4731205A302EAE
:201A0000352046343030004E1BC2EAEB00C2FBEAEB00C4E000CDE5F200101010101010104D
:201A20000014141414141414001018141214181000030004004E2F41005049440042616EDD
:201A40006742616E6700C8E4E5F220EFE5F7E0F2FC2E2E2E00C2FBEAEB0064656600000020
:201A6000003FCDCC4C3D0AD7A33B6F12033A004014542050494341534F203344204445536E
:201A800049474E455200202020C2E5F0F1E8FF20CFCE20312E303900CEE6E8E4E0EDE8E543
:201AA00020E7E0E4E0EDE8FF00040E15041C000000040A0400000000000000001F0A000025
:201AC000001F1F1F1F0E1F0E04001C1F11111F00001515151515151500551B03E8035D1B66
:201AE000621B671B6C1B711B761BD91A7B1B801B851B8A1B8F1B941B991B9E1BA31BA81B93
:201B0000AD1BB21BB71BBC1BC11BC61BCB1BD01BD51BDA1BDF1BE41BE91BEE1BF31BF81BED
:201B2000FD1B021CD91A071C0C1C111C161C1B1CD91A201C251C2A1C2F1C341C391C3E1C9B
:201B4000431C481C4D1C161CD91A521C571C00000004005C1CCDE0E7E0E4200100641C00DE
:201B60000000721C000000831C000000911C000000A21C000000B21C000000B61C03F50332
:201B8000C21C03F303C71C03F603CD1C03F703D81C000000E11C000000F11C000000011D8D
:201BA000000000021D0000000B1D0000001B1D0000002B1D0000002C1D000000351D0000C3
:201BC00000451D000000551D000000561D0000005F1D0000006F1D0000007F1D000000809A
:201BE0001D000000891D000000991D000000A91D000000AA1D000000B31D000000C31D002F
:201C00000000D31D000000D41D043C04E41D043D04F41D033A04031E02121E191E03430433
:201C2000241E03FD032D1E03FE03341E03FF033B1E030004421E0214134E1E02FF12591EDA
:201C4000021B13651E020613701E0222137C1E020D13871E02F812901E02971E9E1EA31EA2
:201C6000A81EAD1E436F6E66696775726174696F6E0073746F72656420696E2045455052A7
:201C80004F4D00436F6E66696775726174696F6E006C6F6164656420662E20454550524F98
:201CA0004D002A2A2A2A204552524F52202A2A2A2A00256F6500C2FBE1EEF020F4E0E9EB80
:201CC000E000D1F2EEEF00CFE0F3E7E000CFF0EEE4EEEBE6E8F2FC00583A257830206D6D9C
:201CE000004D696E20656E6473746F703A257378004D617820656E6473746F703A257358EC
:201D00000000593A257831206D6D004D696E20656E6473746F703A257379004D6178206531
:201D20006E6473746F703A25735900005A3A257832206D6D004D696E20656E6473746F7042
:201D40003A25737A004D617820656E6473746F703A25735A0000583A257830206D6D004D22
:201D6000696E20656E6473746F703A257378004D617820656E6473746F703A2573580000B8
:201D8000593A257831206D6D004D696E20656E6473746F703A257379004D617820656E64DF
:201DA00073746F703A25735900005A3A257832206D6D004D696E20656E6473746F703A2535
:201DC000737A004D617820656E6473746F703A25735A00004265642054656D702E3A254514
:201DE0006202430054656D702E203020203A25453002430045787472756465722030204FBD
:201E0000666600457874722E20706F736974696F6E0003F0030200B21E536574204F726952
:201E200067696E00486F6D6520416C6C00486F6D65205800486F6D65205900486F6D6520F6
:201E40005A005820506F732E2046617374005820506F736974696F6E005920506F732E20DC
:201E600046617374005920506F736974696F6E005A20506F732E2046617374005A20506F45
:201E8000736974696F6E0053442DEAE0F0F2E000D1E5F0E2E8F1000200000900B61EC81E36
:201EA000000000D81E000000E81E000000EC1E000000F01EF51ED91AFA1EFF1E041F091F88
:201EC0000E1F131F181F1D1F051A256563021B2565311C2545630200041A256542021B2535
:201EE00065321C254562020025666E00256F7300221F0000002B1F0000003A1F02481F4FC5
:201F00001F025F1F661F02761F7D1F03B2048F1F029F1FA61F03B304B31F02BE1FC51F022D
:201F2000D01F453A257833206D6D003120636C69636B203D2031206D6D00D1EDFFF2E8E5EE
:201F400020E4E5F2E0EBE8000200000300D71FD1ECE5EDE8F2FC20EFEBE0F1F2E8EA000202
:201F600000000300DD1FC8E7E2EBE5F7FC20EFEBE0F1F2E8EA000200000300E31FC7E0EFE2
:201F8000F0E0E2E8F2FC20EFEBE0F1F2E8EA00CDE0F1F2F0EEE9EAE020F1F2EEEBE000034A
:201FA000B4040400E91FD1E5F0E2E8F120F1EEEFEBE000CFF0E5E4EDE0E3F0E5E200020052
:201FC000000300F11FCE20EFF0E8EDF2E5F0E50003B9040400F71FD91AFF1F0420D91A0995
:201FE000200E20D91A132018201D20222027202C20D91A312036203B20402045204A204FB0
:202000002003BA045D2003BB046B2003B704772003B804832003B5048F2003B6049B20007B
:202020000000AF20000000C120000000D420000000E020033704EF20034704FE2000000043
:20204000132100000028210000003521000000C4E5F2E0EBFC20E8E720504C4100C4E5F2C4
:20206000E0EBFC20E8E72041425300D1ECE5EDE8F2FC20504C4100D1ECE5EDE8F2FC20418C
:20208000425300C8E7E2EBE5F7FC20504C4100C8E7E2EBE5F7FC20414253002020C8F1EF28
:2020A000EEEBFCE7F3FF20F8E0E1EBEEED2C00202020F1EAEEF0F0E5EAF2E8F0F3E9F2E552
:2020C00000202020F1ECE5F9E5EDE8E520EEF1E8205A3A00202020202025783420ECEC0042
:2020E000CFF0E5E4EDE0E3F0E5E220504C4100CFF0E5E4EDE0E3F0E5E22041425300CDEE54
:20210000ECE5F020E2E5F0F1E8E82048573A322E303000CDEEECE5F020E2E5F0F1E8E82079
:2021200053573A312E303900CFEBE0F1F2E8EA3A256650EC00C2F0E5ECFF20F0E0E1EEF270
:20214000FB3A257054F70000002100240027002A0000002200250028002B000000200023F7
:202160000026002900020202020202020204040404040404040303030303030303010101C5
:2021800001010101010102040810204080010204081020408001020408102040808040205D
:2021A0001008040201000000010200000000000000040307060000000000000000000000E9
:2021C0000000000000494E46494E4954594E414ECDCCCC3D0AD7233C17B7D13877CC2B325F
:2021E0009595E6241FB14F0A000020410000C84200401C4620BCBE4CCA1B0E5AAEC59D74BE
:20220000015E518DEA9511241FBECFEFD0E4DEBFCDBF19E0A0E0B1E0E4EBF0E901E00BBFF8
:2022200002C007900D92A43AB107D9F71BBE1BE1A4EAB9E001C01D92A135B107E1F712E27A
:20224000C6E0D2E204C02297FE010E9412C8C030D107C9F70E947EC20C9458C80C94000062
:20226000A0E0B0E0E6E3F1E10C9427C8EC015B016115710519F0FB0191838083F9908F2D8E
:2022800090E00E9416C8892BC9F7FDE2FF1621F4F990EE24E39405C02BE2F21609F4F9905F
:2022A000EE248E0101501040C80165EC71E243E050E00E94BF13892B01F58E010E5F1F4F94
:2022C000C80168EC71E245E050E00E94BF13892B19F48E01095F1F4FA114B10419F0F50136
:2022E00011830083E0FC04C070E090E080E814C070E090E080E86FEF08C1C8016DEC71E267
:2023000043E050E00E94BF13892B69F4A114B10429F470E090E080EC6FE7F7C02296F50177
:20232000D183C083F6CF8824992440E050E060E070E0EF2DE053EA30A0F5F2E0EF2A8E2D54
:2023400090E09C0128703070E2FE06C0232B79F50894811C911C2BC0232B19F00894810889
:202360009108DB01CA0112E0880F991FAA1FBB1F1A95D1F7480F591F6A1F7B1F440F551F09
:20238000661F771F4E0F511D611D711D483929E9520729E9620729E1720748F084E0E82AB3
:2023A00006C0EE3F31F4E3FC39C098E0E92AF990C0CFE53311F0E53189F529912D3219F4B7
:2023C000E0E1EE2A05C02B3219F081E090E003C0299182E090E0E22FE053EA3018F0C81B90
:2023E000D90B1CC020E030E0FCE020383F075CF4C901880F991F880F991F280F391F220F1B
:20240000331F2E0F311DE991E053EA3068F3E4FE03C0309521953F4F820E931ECE2CDD24D3
:20242000E1FE07C0A114B10421F02197F501D183C083CB01BA010E94C6C57B018C01F3E0A6
:20244000CF22DD2423E0C216D10421F417FB109517F9109557016801C801B70120E030E007
:2024600040E050E00E9429C5882309F44AC097FE0DC024EEE22E21E2F22E90948194910851
:202480009394C0E2D0E000E010E012C09CEFE92E91E2F92EF6CFF7012591359145915491F1
:2024A000C601B5010E94D1C65B016C018C1A9D0A8C169D0684F7D595C7950F5F1F4F0630B8
:2024C000110529F08CEF9FEFE80EF91EF1CFC501D6017C018D018C2D880F8D2D881F8F3FD0
:2024E00051F0C601B50120E030E040E050E00E9429C5882331F482E290E09093501B8093E9
:202500004F1B7E2D9F2D802F612F272F392F482F562FB901CA01CDB7DEB7ECE00C9443C8CC
:202520002F923F925F926F927F928F929F92AF92BF92CF92DF92EF92FF920F931F93CF9388
:20254000DF938C011B01EA016115710519F0FB0191838083209749F0CE010297839728F0E3
:2025600020E030E040E050E0F6C0F801A1908F018A2D90E00E9416C8892BB9F7FDE2AF16DC
:2025800031F4F801A1908F015524539407C0FBE2AF1619F4F801A1908F015524209719F093
:2025A000C031D105C1F4F0E3AF1679F4F8018081883711F0883549F4F801A1800E5F1F4FF1
:2025C000F2E05F2AC0E1D0E006C0209721F480E3A816E9F427C0C830D10531F1C930D10519
:2025E00024F4C230D10531F50CC0CA30D10589F0C031D105F9F4C12CD12CE12CB8E0FB2E54
:2026000028C0C12CD12CE12CA0E4FA2E22C0CAE0D0E0FCECCF2EFCECDF2EFCECEF2EFCE038
:20262000FF2E17C0C8E0D0E0C12CD12CE12CE0E1FE2E0FC09E01442737FD4095542F60E0B5
:2026400070E080E090E80E94D3C7C901DA016C017D0120E030E040E050E060E03E018824FB
:2026600077FC8094982C70EDB72EBA0CE9E0EB1570F48A2D81548A3118F499ECB92E06C055
:202680008A2D81568A3150F589EAB82EBA0C8B2D90E08C179D0714F56F3FE1F0C216D306E5
:2026A000E406F506B0F0CA01B901A40193010E948DC79B01AC012B0D311D411D511D2130F5
:2026C000F0E03F07F0E04F07F0E85F0710F461E001C06FEFF801A1908F01C5CF2114310464
:2026E00081F0662331F001501040F1011183008308C051FE1AC002501040F1011183008379
:2027000014C067FF12C050FC05C02FEF3FEF4FEF5FE704C020E030E040E050E882E290E0CC
:202720009093501B80934F1B16C050FE08C050954095309521953F4F4F4F5F4F0CC057FF71
:202740000AC082E290E09093501B80934F1B2FEF3FEF4FEF5FE7B901CA01DF91CF911F91FB
:202760000F91FF90EF90DF90CF90BF90AF909F908F907F906F905F903F902F900895FB01DD
:20278000DC014150504088F08D9181341CF08B350CF4805E659161341CF06B350CF4605E51
:2027A000861B611171F3990B0895881BFCCFFC018191861721F08823D9F799270895319796
:2027C000CF010895FC0181E090E00190061609F4CF010020D1F701970895FB0151915523D1
:2027E000A9F0BF01DC014D9145174111E1F759F4CD010190002049F04D9140154111C9F3F9
:20280000FB014111EFCF81E090E001970895A0E0B0E0EDE0F4E10C942BC87C01EB018A016D
:20282000690109C0CE012196F6010995F70181937F010150104001151105A1F7CDB7DEB740
:20284000E8E00C9447C8BF92CF92DF92EF92FF920F931F937B018C01FB010995B82EC80126
:202860000196F7010995C82EC8010296F7010995D82EC8010396F7010995982F6B2D7C2D38
:202880008D2D1F910F91FF90EF90DF90CF90BF900895DF92EF92FF920F931F937B018C0186
:2028A000FB010995D82EC8010196F7010995982F8D2D1F910F91FF90EF90DF900895A0E017
:2028C000B0E0E5E6F4E10C942BC8EC017B018A01690109C0CE012196F70161917F01F60127
:2028E00009950150104001151105A1F7CDB7DEB7E8E00C9447C8BF92CF92DF92EF92FF9210
:202900000F931F93D52EC62EB72E79018C01642FF9010995C80101966D2DF7010995C801FC
:2029200002966C2DF7010995C80103966B2DF70109951F910F91FF90EF90DF90CF90BF90C5
:202940000895DF92EF92FF920F931F93D72E7A018C01FA010995C80101966D2DF7010995CD
:202960001F910F91FF90EF90DF900895FC018038910510F49C0123C0672B71F08F3F9105C7
:2029800021F018F020E030E01AC0EE0FFF1FE250FB4F2081318113C0AEEFB5E020E030E035
:2029A0008D919C911197E817F90731F02F5F3F4F129620383105A1F720583F4F3070C901AA
:2029C00008959C01AEE1B4E0E0E0F0E001C031968D919C911197009729F0129628173907B8
:2029E000B1F702C0C9010895EE0FFF1FE25CFD4F20813181F7CFEF92FF920F931F93DF9370
:202A0000CF93CDB7DEB728970FB6F894DEBF0FBECDBF8C01DA017C014BE050E006C0FB0133
:202A20008191BF01F70181937F0141505040FFEF4F3F5F07A1F726303105C8F0932F97956B
:202A400099279795822F8695492F482B922F979599279795832F8695592F582B2D913D9196
:202A6000240F351F8D919C911197892B39F747E050E0DE011196922F9F70892F805D8A33F9
:202A800008F0895FFD01E40FF51F80834150504084E0369527958A95E1F72115310559F78F
:202AA000A40FB51F8EE78C9320E030E002C02F5F3F4F2417350730F4F801E20FF31F808175
:202AC0008032A9F7D801A20FB31FCE0101964830510510F0E0E206C0FC01E40FF51FE08127
:202AE0004F5F5F4FED932F5F3F4F2830310578F328960FB6F894DEBF0FBECDBFCF91DF9110
:202B00001F910F91FF90EF900895DB01882319F02BE030E010C0E091A409F091A50930972B
:202B200009F01082109709F01C92B093A509A093A40920E030E0C9010895FC01009799F057
:202B40008081882381F0868197818617970759F481810E94BE6880FD03C020E030E005C0D2
:202B600023E030E002C029E030E0C90108950F93CF93DF93EC019A01AB01BC016E5C7F4F01
:202B8000898101E00E94C568892B11F063E06DC0CF5CDD4F988180E02A91C053D24030E096
:202BA000822B932B85559A4A11F062E05EC0C559DF4F288130E040E050E0522F44273327F0
:202BC00022278A9190E0A0E0B0E0DC0199278827282B392B4A2B5B2B2297899190E0A0E050
:202BE000B0E0282B392B4A2B5B2B9881C956D04080E0A0E0B0E0282B392B4A2B5B2B507069
:202C0000265431444445504011F460E02EC060E0C957DF4F288130E040E050E0522F4427F6
:202C2000332722278A9190E0A0E0B0E0DC0199278827282B392B4A2B5B2B2297899190E015
:202C4000A0E0B0E0282B392B4A2B5B2B988180E0A0E0B0E0282B392B4A2B5B2B507026543D
:202C600031444445504009F061E0862FDF91CF910F9108952F923F924F925F926F927F9254
:202C80008F929F92AF92BF92CF92DF92EF92FF920F931F93DF93CF93CDB7DEB72A970FB6A5
:202CA000F894DEBF0FBECDBFDC01142FED91FC91119720813181205330402A30310540F4C5
:202CC00082819381CA9721F43496ED93FC9304C08091A809282F30E0232B19F02BE030E02F
:202CE000A0C32091A4093091A5093A872987DB012D933C93232B19F42CE030E092C3E9858E
:202D0000FA858081882359F081810E94BE6880FD06C0112309F480C382FD7BC37DC3A98593
:202D2000BA851C9211961C9280E00E94D96780FF03C023E030E075C3112311F082FD69C3A2
:202D400089859A8540E050E060E070E00E94B715813021F022243324210131C0E985FA8599
:202D6000E051FE4F8481882309F459C3838590E0A0E0B0E0582E442433242224828590E082
:202D8000A0E0B0E0DC0199278827282A392A4A2A5B2A808590E0A0E0B0E0282A392A4A2A7B
:202DA0005B2A918580E0A0E0B0E0282A392A4A2A5B2A89859A85B201A1010E94B7158330B7
:202DC00019F421E030E02DC3882309F028C3E985FA8596AD80E025AD30E0822B932B8050A9
:202DE000924009F01CC329853A85275B3F4FD9019C9180E02E91A854B040BA87A98730E019
:202E0000822B932B4C01AA24BB2481149104A104B10471F5A75ABF4FBA87A9878C9190E056
:202E2000A0E0B0E0B82EAA2499248824E985FA85829190E0A0E0B0E0DC0199278827882AE7
:202E4000992AAA2ABB2A3297819190E0A0E0B0E0882A992AAA2ABB2A9081E755F040FA876F
:202E6000E98780E0A0E0B0E0882A992AAA2ABB2AA985BA855E968D929D92AD92BC929197E0
:202E8000AE5BBF4F4C91A254B040BA87A98713964C931397842F8150823008F0C0C2DF9690
:202EA0002C91DF9712962C931297222309F4B7C230E0C901019782239323892B09F0AFC229
:202EC000AC5BBF4F9C9180E02E91A354B040BA87A987622E7724682A792A19967C926E921C
:202EE0001897C3018F709070892B09F098C2AA5BBF4F9C9180E02E91A554B040BA87A987A0
:202F000030E0822B932B7C0100E010E0E114F1040105110571F5AB5ABF4FBA87A9878C91DC
:202F200090E0A0E0B0E0182F0027FF24EE24E985FA85829190E0A0E0B0E0DC0199278827A2
:202F4000E82AF92A0A2B1B2B3297819190E0A0E0B0E0E82AF92A0A2B1B2B9081E355F0403D
:202F6000FA87E98780E0A0E0B0E0E82AF92A0A2B1B2B29853A852F5B3F4FD9019C9180E054
:202F80002E91A054B040BA87A987C22EDD24C82AD92AC114D10409F442C2242F30E040E009
:202FA00050E0C501B4010E948DC769837A838B839C83960140E050E02D833E834F83588751
:202FC000E4E076946794EA95E1F75301CC24DD24A20EB31EC41ED51EA60EB71EC81ED91ED0
:202FE000EA14FB040C051D0508F419C2EA18FB080C091D09A985BA8512962C9130E040E088
:2030000050E0C801B7010E94D3C7C901DA010097A105B10509F403C2863FEFE09E07E0E070
:20302000AE07E0E0BE0718F4992493940DC0863FFFEF9F07F0E0AF07F0E0BF0718F023E019
:20304000922E02C002E0902E12E0E12EF12C012D112DE80EF91E0A1F1B1FA985BA855A96F7
:20306000ED92FD920D931C935D97A20CB31CC41CD51CFD01A2A6B3A6C4A6D5A62D813E81C0
:203080004F815885220D331D441D551D92962D933D934D935C93959718968D919C911997D5
:2030A000B3E09B16D9F5892B09F0B9C1EF59FF4F208130E040E050E0522F442733272227B1
:2030C000829190E0A0E0B0E0DC0199278827282B392B4A2B5B2B3297819190E0A0E0B0E004
:2030E000282B392B4A2B5B2B9081EF55F040FA87E98780E0A0E0B0E0282B392B4A2B5B2B86
:2031000026A337A340A751A7A801970162E0220F331F441F551F6A95D1F735C0892B09F4E3
:203120007EC169817A818B819C81260F371F481F591FA985BA8596962D933D934D935C93E0
:203140009997D801C701880F991FAA1FBB1FE2E09E1619F49C01AD0116C09C01AD012E0D82
:203160003F1D401F511F569547953795279561E070E080E090E0E622F722082319232E0DB1
:203180003F1D401F511F21503E4F4F4F5F4F89E056954795379527958A95D1F7E985FA852E
:2031A000868D978DA0A1B1A182179307A407B50708F435C18FEF9FEFAFEFBFEF8687978736
:2031C000A08BB18B1286138614861586B3E09B1609F000C11582ED59FF4F308120E0829135
:2031E000E256F040FA87E98790E0282B392B40E050E0220D331D441D551D228B338B448B73
:20320000558BBF016E5C7F4F818101E00E94C568892B09F0DFC0E985FA85EF5CFD4F9081E3
:2032200080E02291E053F240FA87E98730E0822B932B85559A4A09F0CDC0A985BA85D5968E
:203240002C91D59730E040E050E0522F442733272227D4968C9190E0A0E0B0E0DC019927B2
:203260008827282B392B4A2B5B2BE985FA8582A990E0A0E0B0E0282B392B4A2B5B2B93A967
:2032800080E0A0E0B0E0282B392B4A2B5B2B225532454146514409F09DC029853A85275EBA
:2032A0003D4FD9012C9130E040E050E0522F4427332722278E91BA87A98790E0A0E0B0E0EC
:2032C000DC0199278827282B392B4A2B5B2BE985FA853297819190E0A0E0B0E0282B392BF1
:2032E0004A2B5B2B9081E751F240FA87E98780E0A0E0B0E0282B392B4A2B5B2B2257324753
:203300004144514609F066C029853A852F5D3D4FD9012C9130E040E050E0522F44273327B0
:2033200022278E91BA87A98790E0A0E0B0E0DC0199278827282B392B4A2B5B2BE985FA8549
:203340003297819190E0A0E0B0E0282B392B4A2B5B2B9081EF51F24080E0A0E0B0E0282B1A
:20336000392B4A2B5B2BDF012287338744875587A35EBD4F2C9130E040E050E0522F4427EE
:20338000332722278E91BA87A98790E0A0E0B0E0DC0199278827282B392B4A2B5B2BE9850E
:2033A000FA853297819190E0A0E0B0E0282B392B4A2B5B2B9081EB51F240FA87E98780E0B1
:2033C000A0E0B0E0282B392B4A2B5B2B26873787408B518BE985FA8590828091A609909139
:2033E000A70901969093A7098093A60997838683A985BA859E961D921D921D921C92D1970A
:2034000014961C92E985FA85168A178A108E118E03C02AE030E005C020E030E002C02DE068
:2034200030E0C9012A960FB6F894DEBF0FBECDBFCF91DF911F910F91FF90EF90DF90CF90AF
:20344000BF90AF909F908F907F906F905F904F903F902F9008955F926F927F928F929F9234
:20346000AF92BF92CF92DF92EF92FF920F931F93CF93DF933C014B01EB012996FC01868572
:203480009785A089B1890097A105B10509F4B7C002891389D8011C965C90EE24FF24C52C82
:2034A000DD24B8E0CB22DD24F801EE0DFF1D8081282F30E02032310509F12530310511F4FB
:2034C00025EE30E0C114D10439F0C901815490404A9710F4205E3F4FC90161E070E00E9499
:2034E000B614009711F48FE390E0899399930894E11CF11CE8E0EE16F104B1F6D8011896A7
:203500008C91803211F47E0132C08EE290E0FE01819391937F015801C52CDD24F0E1CF22C2
:20352000DD242896D50118968C91282F30E020323105E9F0C114D10439F0C9018154904021
:203540004A9710F4205E3F4FC90161E070E00E94B614009711F48FE390E0F7018193919305
:203560007F010894A11CB11CEC17FD07D9F6D8011B968C911B97E40188875F962C915F97DA
:2035800030E040E050E0522F4427332722275E968C9190E0A0E0B0E0DC0199278827282B0C
:2035A000392B4A2B5B2BF801848D90E0A0E0B0E0282B392B4A2B5B2B958D80E0A0E0B0E0DE
:2035C000282B392B4A2B5B2BD4012D933D934D935C931397918D80E0208D30E0822B932BB5
:2035E00015969C938E931497978980E0268930E0822B932B17969C938E931697E70119824E
:203600001882E401EBA1FCA13097B1F18DA19EA1892B91F1E3018E859F85A889B9890097D1
:20362000A105B10509F1888D998D8F5F9F4FE1F00E88DF89C02DBF0120E030E00FC0D401ED
:2036400095968D919C91969701972817390760F4DB014D935D93BD012F5F3F4F4991599112
:203660004115510561F702C020E030E0220F331FE20FF31F11821082DF91CF911F910F91A9
:20368000FF90EF90DF90CF90BF90AF909F908F907F906F905F9008956F927F928F929F9274
:2036A000AF92BF92CF92DF92EF92FF920F931F93CF93DF93EC014A015B01CEA4DFA4E8A853
:2036C000F9A8C416D506E606F70609F44FC08C818823A1F1E2E36E2E712C6C0E7D1E898138
:2036E000B301A701960101E00E942369892BD9F51C828E8D9F8DA8A1B9A12AA13BA14CA12A
:203700005DA1820F931FA41FB51FC816D906EA06FB06A0F41B8110C08E8D9F8DA8A1B9A139
:20372000C80ED91EEA1EFB1E8981B301A701960101E00E9423691150123070F7811491045B
:20374000A104B10499F0BE016E5C7F4F8981A501940101E00E94C568892B29F48EA69FA6F0
:20376000A8AAB9AA03C021E030E002C020E030E0C901DF91CF911F910F91FF90EF90DF9087
:20378000CF90BF90AF909F908F907F906F9008956F927F928F929F92AF92BF92CF92DF927B
:2037A000EF92FF920F931F93CF93DF93EC016A017B0148015901423051056105710508F4B8
:2037C000ECC08A8D9B8DAC8DBD8D481759076A077B0708F0E2C08881823009F472C0833092
:2037E00009F493C0813019F002E010E0D3C03A01769467946C0C7D1CA301452F552746959A
:2038000060E070E08AA19BA1ACA1BDA1480F591F6A1F7B1FCE010E944C1B8C01009709F01F
:20382000B9C0D301B170E1E0CE22DD24C114D10451F0FE01EA0FFB1F82A98F70982D929555
:20384000907F982B01C0982DAC0FBD1FD2969C9373010894E11CF11C81E08C83A701452F3C
:203860005527469560E070E08AA19BA1ACA1BDA1480F591F6A1F7B1FCE010E944C1B8C01F8
:20388000009709F087C0A7015170CD2849F094E0B694A794979487949A95D1F7682D0BC024
:2038A000FE01E40FF51F62A9607FBB27AB2D9A2D892D8F70682B4C0F5D1FDA01D2966C9336
:2038C00069C0452F562F672F77278AA19BA1ACA1BDA1480F591F6A1F7B1FCE010E944C1BB6
:2038E0008C01009709F056C0CC0CDD1CEE1CFF1CF601F170DE01AE0FBF1FD2968C92D297DE
:20390000FD01892D992783AB45C0E7E07695679557954795EA95D1F78AA19BA1ACA1BDA111
:20392000480F591F6A1F7B1FCE010E944C1B8C01009781F562E0CC0CDD1CEE1CFF1C6A95EC
:20394000D1F7F601F170F296BE016E0F7F1FF297DB0113968C9190E0A0E0B0E0B82FAA2782
:2039600099278827EC0FFD1F80709070A070B07F88299929AA29BB2982AB292F3327FB018D
:2039800021839D014427552722838B2F9927AA27BB27838381E08C8302C002E010E0C80159
:2039A000DF91CF911F910F91FF90EF90DF90CF90BF90AF909F908F907F906F900895BF9233
:2039C000CF92DF92EF92FF920F931F93CF93DF93EC017A018B01423051056105710508F447
:2039E000E5C08A8D9B8DAC8DBD8D481759076A077B0708F0DBC08881823009F45BC0833095
:203A000009F47DC0813009F0D7C06A01D694C794C40ED51EA601452F5527469560E070E034
:203A20008AA19BA1ACA1BDA1480F591F6A1F7B1FCE010E944C1B892B09F0BEC0F601F17027
:203A4000EC0FFD1FB2A80894C11CD11CA601452F5527469560E070E08AA19BA1ACA1BDA17B
:203A6000480F591F6A1F7B1FCE010E944C1B892B09F0A2C02B2D30E0AFEFB1E0CA22DB22ED
:203A8000CC0EDD1EF60192A980E0282B392BC70181709070892B31F014E0369527951A9550
:203AA000E1F729C0790100E010E08FEF9FE0A0E0B0E077C0452F562F672F77278AA19BA123
:203AC000ACA1BDA1480F591F6A1F7B1FCE010E944C1B892B09F070C0EE0CFF1C001F111F30
:203AE000D701B170FE01EA0FFB1F22A930E093A980E0282B392B790100E010E061C0F7E04B
:203B00007695679557954795FA95D1F78AA19BA1ACA1BDA1480F591F6A1F7B1FCE010E940A
:203B20004C1B892B09F048C0E2E0EE0CFF1C001F111FEA95D1F7F701F170F2969E012E0F3F
:203B40003F1FF297D90112968C9190E0A0E0B0E08C01FF24EE24D90113968C9190E0A0E00D
:203B6000B0E0B82FAA2799278827E82AF92A0A2B1B2BD90111969C9180E0A0E0B0E0E82AAE
:203B8000F92A0A2B1B2BEC0FFD1F82A990E0A0E0B0E0E82AF92A0A2B1B2B8FEF9FEFAFEF6B
:203BA000BFE0E822F9220A231B230AC051E0E52EF12C012D112D04C0EE24EA94FE2C870139
:203BC000B701C801DF91CF911F910F91FF90EF90DF90CF90BF900895AF92BF92CF92DF9218
:203BE000EF92FF920F931F93CF93DF935C016B01DC0115967C936E93149716964D915D9107
:203C00006D917C911997413051056105710509F4D5C0ED91FC91828D938DA48DB58D4817A8
:203C200059076A077B0708F0C9C0411551056105710581F58081833049F446A157A160A5DD
:203C400071A5411551056105710521F5F50112861386148615860190F081E02D808591852A
:203C6000C816D90608F0AAC0C601A4E096958795AA95E1F7A0E0B0E026A137A140A551A5F2
:203C8000820F931FA41FB51FF50186879787A08BB18B7BC08281082F10E0F4E0000F111F4A
:203CA000FA95E1F725C0CE010E94DF1CAB01BC014F3FFFEF5F07FFEF6F07FFEF7F0719F41C
:203CC00021E030E07DC0423051056105710508F475C0D501ED91FC91828D938DA48DB58D3E
:203CE000481759076A077B0708F068C0C01AD10AF501C081D181C016D106A8F6D5011A96E3
:203D00004D935D936D937C931D97EEEFEE2EEFEFFE2EEFEF0E2FEFEF1E2FE40EF51E061F9D
:203D2000171F8A8D9B8DAC8DBD8D0297A109B109E816F9060A071B0728F020E030E040E016
:203D400050E012C02A8130E040E050E0C801B7010E948DC79B01AC018AA59BA5ACA5BDA574
:203D6000280F391F4A1F5B1FC60164E0969587956A95E1F7A0E0B0E0280F391F4A1F5B1F26
:203D8000F50126873787408B518BFFE0CF22DD2435E0CC0CDD1C3A95E1F782E390E0C80E12
:203DA000D91ED5018D919C9111978C0D9D1D53969C938E93529720E030E002C022E030E0EA
:203DC000C901DF91CF911F910F91FF90EF90DF90CF90BF90AF9008954F925F926F927F920E
:203DE0008F929F92AF92BF92CF92DF92EF92FF920F931F93CF93DF93EC012A013B01411529
:203E000051056105710599F48A849B84AC84BD8481149104A104B10409F18A8D9B8DAC8D4F
:203E2000BD8D88169906AA06BB06C0F41CC00E94DF1C9B01AC01623071058105910508F4F4
:203E40008AC08A8D9B8DAC8DBD8D281739074A075B0708F48EC05301420105C011E0812EDE
:203E6000912CA12CB12C750164010894C11CD11CE11CF11C8A8D9B8DAC8DBD8DC816D90611
:203E8000EA06FB0660F022E082169104A104B10408F46BC0B2E0CB2ED12CE12CF12CCE01B0
:203EA000B701A6010E94DF1C9B01AC016115710581059105A9F02F3F8FEF38078FEF480724
:203EC0008FEF580709F455C0213031054105510509F44FC0C814D904EA04FB0431F645C0F2
:203EE000BC2CAD2C9E2C8F2CCE01A601B7010FEF1FEF2FEF3FE00E94C81B009751F541144E
:203F000051046104710449F0CE01B301A201860197010E94C81B0097E1F4BA86AB869C8670
:203F20008D868E859F85A889B9898F3F2FEF92072FEFA2072FEFB20749F00197A109B1096C
:203F40008E879F87A88BB98B81E08D83A701960110C0019729F021E030E040E050E009C054
:203F60002FEF3FEF4FEF5FEF04C020E030E040E050E0B901CA01DF91CF911F910F91FF9011
:203F8000EF90DF90CF90BF90AF909F908F907F906F905F904F9008959F92AF92BF92CF925B
:203FA000DF92EF92FF920F931F93CF93DF93EC017A018B01423051056105710508F45AC0A8
:203FC0008A8D9B8DAC8DBD8D481759076A077B0708F443C04FC0CE01B801A7010E94DF1C92
:203FE0005B016C01611571058105910509F445C081E0A816B104C104D104E1F12FEFA216D8
:204000002FEFB2062FEFC2062FEFD20619F421E030E035C0CE01B801A70100E010E020E0DB
:2040200030E00E94C81B9C01009749F58E859F85A889B9898F3F2FEF92072FEFA2072FEF65
:20404000B20741F00196A11DB11D8E879F87A88BB98B9D828601750102C0992493948A8DC8
:204060009B8DAC8DBD8DE816F9060A071B0708F4B2CF03C022E030E002C020E030E0C90177
:20408000DF91CF911F910F91FF90EF90DF90CF90BF90AF909F9008954F925F926F927F92E6
:2040A0008F929F92AF92BF92CF92DF92EF92FF920F931F93CF93DF93EC016B016C807D80CE
:2040C0000894611C711C6114710409F44EC18E859F85A889B9890097A105B10509F445C1A4
:2040E0001FE0412E512C462057204114510409F028C10196A11DB11D8E879F87A88BB98B97
:204100004A855B856C857D85E881F981411551056105710539F4808591856816790608F451
:2041200010C123C1828190E001979301A4E036952795AA95E1F782239323892B09F001C13F
:20414000CF010E94DF1C7B018C01623071058105910508F40DC18FEFE8168FEFF8068FEF85
:2041600008078FEF180709F406C1E881F981828D938DA48DB58DE816F9060A071B0708F41E
:20418000A7C0CD2809F4F1C04A855B856C857D85CF010E94EC1E7B018C016115710581057C
:2041A000910519F427E030E0E8C091E0E916F1040105110509F4DCC0AFEFEA16AFEFFA0647
:2041C000AFEF0A07AFEF1A0709F4D5C08881998140E050E060E070E00E944C1B892B09F026
:2041E000CAC0E881F981F29680E092E001C011920197BFEF8F3F9B07D1F7888099804EEFB8
:20420000A42E4FEFB42E4FEFC42E4FEFD42EAE0CBF1CC01ED11EF401828D938DA48DB58D43
:204220000297A109B109A816B906CA06DB0628F020E030E040E050E015C0D40112962C91CC
:2042400030E040E050E0C601B5010E948DC79B01AC01F40182A593A5A4A5B5A5280F391FBC
:204260004A1F5B1FD4019E962D933D934D935C93D197DD24CC24C3941AC0C4828881998100
:2042800040E050E060E070E00E944C1B892B09F072C0E881F98186A597A5A0A9B1A90196D2
:2042A000A11DB11D86A797A7A0ABB1ABD394E881F9818281D81608F386A597A5A0A9B1A920
:2042C0008D199109A109B10986A797A7A0ABB1ABEA86FB860C871D87C880D9808EEF9FEF54
:2042E000AFEFBFEFE80EF91E0A1F1B1FF601828D938DA48DB58D0297A109B109E816F9066F
:204300000A071B0728F020E030E040E050E015C0D60112962C9130E040E050E0C801B70100
:204320000E948DC79B01AC01F60182A593A5A4A5B5A5280F391F4A1F5B1F2E873F87488B85
:20434000598B7D826C8235E0440C551C3A95E1F782E390E0480E591E88819981840D951D07
:204360009B8B8A8B20E030E008C024E030E005C022E030E002C021E030E0C901DF91CF91D2
:204380001F910F91FF90EF90DF90CF90BF90AF909F908F907F906F905F904F9008952F92DB
:2043A0003F924F925F926F927F928F929F92AF92BF92CF92DF92EF92FF920F931F93CF93CA
:2043C000DF935C0160E070E00E94EC1DAC01009709F0E4C055245A9444244A9422242A9441
:2043E000322CD5011E964D915D916D917C9151978D919C910E944C1BAC01009709F0CEC0F7
:20440000F50102891389D8012C91222319F444E050E0C4C0F8018385253E09F4B4C08F73E8
:2044200083FF04C08F3009F0AEC003C08F3009F07AC0D50156968D919C915797892B09F4AF
:20444000A4C026FF0EC0F801458414968D919C91159759969C938E9358973FEB532E522255
:2044600003C0251509F08FC0D8011D968C911D97481609F088C0F501868897888C9190E04B
:204480008F7B2DE030E0829FE001839FD00D929FD00D11242D972EE7C22E27E0D22E91E070
:2044A000E92EF12CD6018C91F801E80FF11D71806624808190E086299729E114F104B1F0F0
:2044C0000E94E1147C01C337D10508F05CC0FE01EE0FFF1FE80DF91D808191810E94E11415
:2044E000E816F90609F04FC0219604C08F5F9F4F09F049C00894C11CD11CEBE8CE16E7E07A
:20450000DE0681F6D8018C9186FF5CC0EF2809F459C0CC0FDD1F8C0E9D1EF4018081918148
:20452000892B89F54FC0552089F4F8012BE030E090E0892F8795882787959695982B819125
:20454000980F21503040A9F7491641F1D50159963C922E9258975496ED91FC915597838577
:2045600080FD11C0DF01F8012BE030E0215030408FEF2F3F380791F090818C91981719F482
:2045800031961196F3CF55245A94C50160E070E00E944C20AC01009709F423CFCA01DF91B2
:2045A000CF911F910F91FF90EF90DF90CF90BF90AF909F908F907F906F905F904F903F90E8
:2045C0002F9008955A94E1CF2F923F924F925F926F927F928F929F92AF92BF92CF92DF92B5
:2045E000EF92FF920F931F93DF93CF9300D000D000D0CDB7DEB77C012B01DB018D919C9128
:204600008F32910519F08C35910561F4E2E0F0E04E0E5F1ED70116961D921D921D921C92E4
:2046200019970CC0D701ED91FC9186899789A08DB18DF70186839783A087B187D2018D9116
:204640009C91809798F4C70160E070E00E94EC1D9C01F701138A128AF6C1220C331C420C37
:20466000531C04C062E070E0460E571ED2018D919C9111978F329105A9F38C35910591F318
:20468000F701A688B788B501850120E030E04D915C91119719010894211C311C40325105EE
:2046A00028F14F32510509F4E8C14C35510509F4E4C1F4E72F16310409F4C0C1403851054A
:2046C00070F4E0E0F1E001C031968081882339F0992787FD909584179507B1F7AFC1F801D7
:2046E000419351938F0112969101D1CF3E832D83E4E0DE2E2130310591F02230310539F49A
:20470000F501828193818E9751F03E832D83F901E150F040EE0FFF1FEA0DFB1D46C0D50154
:204720008D919C918E9789F7C901880F991FA80EB91EF5011182108280E090E0D701549636
:20474000ED91FC9155978217930710F040E201C04EE2E80FF91F408301968B30910571F7FA
:20476000D7015496ED91FC915597B0E2DB2A11C1808191818032910591F08E9781F0ED8137
:20478000FE81EE0FFF1FEA0DFB1D11821082D7015496ED91FC9155978BE090E00DC08D81DC
:2047A0009E8101979E838D833297AD81BE81AB2BF9F644C1B0E2B19301972FEF8F3F92071E
:2047C000C9F700E010E004C00F5F1F4F6E5F7F4FDB018D919C9180329105B1F38E97A1F342
:2047E0000115110511F0B3E0DB2AED81FE81E150F040EE0FFF1FEA0DFB1D10C06D817E81BF
:20480000615070407E836D833297672B39F4B8E06B2E712C88249924CC2405C080819181BF
:204820008E9761F7F4CFF801EE0FFF1FEA0DFB1DA081B181109709F47AC00F5F1F4FA03236
:20484000B10541F0AE32B10541F48D819E810817190719F093E0D92AE6CF8614970428F4B5
:20486000ED81FE810E171F07F9F4FBE06F16710419F423E0D22A5BC06D817E8106171707EF
:2048800041F073E0D72A8D819E818017910708F44EC0CC0CCC0C0D811E81EBE06E2E712C4C
:2048A00078E0872E912CBFCFA038B10588F0CD0160E070E00E94B614DC01009729F0A25849
:2048C000B94F8C91A82FB0E092E0D92A1097A1F0E9E0F1E001C031968081882339F09927E8
:2048E00087FD90958A179B07B1F706C0CD01815490404A9730F008C0A3E0DA2AAFE5B0E077
:204900000BC0E2E0CE2A08C0CD01815690404A9718F4F1E0CF2A9097F70184899589880D3F
:20492000991DFC01A0830894811C911C7CCFD7015496ED91FC9155978081853E11F4B5E059
:20494000B083E8E06E16710411F4CC0CCC0C2C2D30E0A9014C7050704C30510529F0C9016A
:2049600083709070039711F4F2E0DF2AD1FC0CC0237030702130310511F420E1D22A443001
:20498000510511F468E0D62AD7015496ED91FC915597D386C7010E94CF219C01D7015496A9
:2049A000ED91FC915597838521153105D1F02430310509F048C090E0AC014470507085FF2B
:2049C0000DC0F7011682178210861186138A128A452B09F442CE20E030E035C0452B89F10F
:2049E00032C082FD30C0D7015296ED91FC915397838584FF26C0B589BA831982248930E05D
:204A000069817A81262B372B40E050E0A90133272227738D7C831B82828D90E0AB81BC81DD
:204A20008A2B9B2BA0E0B0E0282B392B4A2B5B2BF70126833783408751870FCE26E030E04C
:204A400002C025E030E0C90126960FB6F894DEBF0FBECDBFCF91DF911F910F91FF90EF9084
:204A6000DF90CF90BF90AF909F908F907F906F905F904F903F902F9008953E832D83DD2413
:204A800039CE0F931F93DF93CF93CDB7DEB72E970FB6F894DEBF0FBECDBF8C017E876D873C
:204AA000CE010D96B80140E00E943A169C01009709F050C0CE010196D80155969C938E9302
:204AC000549789EA99E057969C938E9356976D857E85C8010E94E4229C010097B1F5D801BC
:204AE0005296ED91FC9153973097F9F0838584FF2FC0358920E0848990E0282B392B40E09D
:204B000050E0A90133272227938D80E0628D70E0862B972BA0E0B0E0282B392B4A2B5B2B24
:204B2000F8012683378340875187D801ED91FC9111978681978113969C938E931297C80164
:204B400060E070E00E94EC1D9C012430310511F425E030E0C9012E960FB6F894DEBF0FBE90
:204B6000CDBFCF91DF911F910F9108957F928F929F92AF92BF92CF92DF92EF92FF920F9371
:204B80001F93DF93CF93CDB7DEB72C970FB6F894DEBF0FBECDBF7C01DC015496CD90DC905F
:204BA00055975696BC9056975796AC90D601FE0131969E01235F3F4F02C08D918193E21782
:204BC000F307D9F78C8585FF03C046E050E059C180FF2FC0F6011386D70157961C921E9222
:204BE000569701E010E04E010894811C911CC601B4014B2D5A2D98010E94FB14C7010E9493
:204C0000CF21AC01009741F40F5F1F4F0436110571F747E050E035C18430910509F031C115
:204C20008C85F6018387D7015696BC9256975796AC928C8581FD04C061E0A62EB12C14C01F
:204C40008B2D9A2D9C01F90120E030E002C02F5F3F4F81919191892BD1F7C90149966DE0AA
:204C600070E00E94ACC75B01C70160E070E00E94EC1DAC01009709F004C1CC24DD2400E09D
:204C800010E0F7014685578560897189808191810E944C1BAC01009709F0F3C0D7015296D6
:204CA000ED91FC915397E081E53E29F0EE2319F000E010E00CC00115110519F4F701C48037
:204CC000D5800F5F1F4F0A151B0509F4EFC0C70161E070E00E944C20AC01009791F2D1C0F9
:204CE000C701B6010E94EC1DAC01009709F0C9C0D70154968C91549755969C919C01F9014B
:204D00002BE030E0DD248D2D879588278795D694D82A8191D80E21503040A9F70894A108AC
:204D2000B1085FE0752E4DE0842E99249394F7014685578560897189808191810E944C1B77
:204D4000AC01009709F09DC0D70156960D911C91579752960D90BC91A02DCA2C1D96DC9206
:204D60001D971B967C921B971C961C921C975A961C925A975B961C925B97A89CA0011124C1
:204D80004D5050406EE777E020E030E0EFEF2F3F3E0749F0FA01EE0FFF1FE00FF11F2081AA
:204DA00031814F5F5F4FFB018081FD01E80FF11D208331832115310511F42FEF3FEF6F5F03
:204DC0007F4FF7E06B387F0709F72F5F3F4F49F0440F551F040F151FF80180819181892BE2
:204DE00011F4F0E4CF2ACC92D701ED91FC919482C70160E070E00E944C20AC01009709F0E7
:204E000040C00894A108B108A114B10409F08FCFF7014685578560897189808191810E949C
:204E20004C1BAC01009769F5D70152966D917C915397FB0180E290E001C011920197BFEF3C
:204E40008F3F9B07D1F7F701848995899C01D901FB012BE030E002C08D9181932150304094
:204E60008FEF2F3F3807C1F7D7015496ED91FC91559783858871FB018487ED91FC9181E022
:204E80008483CA012C960FB6F894DEBF0FBECDBFCF91DF911F910F91FF90EF90DF90CF903B
:204EA000BF90AF909F908F907F900895F2E0AF16B10408F015CFACCFAF92BF92CF92DF9263
:204EC000EF92FF920F931F93CF93DF938C01E4E0F0E0DD24DA94CC24CA946DE0A62EB12CBC
:204EE000A1C0D8018D919C910E944C1BFC01009709F0A7C0E801AA89BB892C91222309F4D1
:204F0000B3C01B968C911B97253E09F481C08F7383FF04C08F3009F07BC003C08F3009F047
:204F20005FC026FF0CC01D96CC901D97F80184819581918F808F5FEBD52ED22203C02D1515
:204F400009F066C01D968C911D97C81609F060C0E8016E897F898C9190E08F7390708A9D19
:204F600090018B9D300D9A9D300D11242D503040CEE7D7E041E050E08881FD01E80FF11DDC
:204F8000F180EE24808190E08E299F29452B71F02337310508F03CC0F901EE0FFF1FE60F3F
:204FA000F71F918380832F5F3F4F05C08F5F9F4F79F580E090E02196F7E0CB38DF0711F051
:204FC000AC01DACF8C9186FF4DC02337310500F5220F331F620F731FDB011D921C9242C086
:204FE000DD2081F42BE030E090E0892F8795882787959695982B8D91980F21503040A9F7E1
:20500000C91621F18FEF9FEFE801998F888F1EC0DD24DA94C80160E070E00E944C20FC01BA
:20502000009779F4D8011E964D915D916D917C915197411551056105710509F052CF3097B7
:2050400029F0E8011E861F86188A198ACF01DF91CF911F910F91FF90EF90DF90CF90BF90A5
:20506000AF900895DA94D6CFE4E0F0E0EACFEF92FF920F931F93DF93CF93CDB7DEB72C97DE
:205080000FB6F894DEBF0FBECDBF8C017B01FC0162817381808191810E949D15009741F4B9
:2050A000E114F10439F4C80160E070E00E94EC1D9C012CC0CE010196F801958B848B89EA4B
:2050C00099E0978B868BC8010E945C279C018430910531F4F80116861786108A118A02C001
:2050E0000097A1F4C801B7010E942B1AC80160E070E00E944C209C018430910539F4F801A8
:2051000016861786108A118A20E030E0C9012C960FB6F894DEBF0FBECDBFCF91DF911F91BE
:205120000F91FF90EF9008952F923F924F925F926F927F928F929F92AF92BF92CF92DF92F8
:20514000EF92FF920F931F93DF93CF9300D000D0CDB7DEB79C838B83162F072F2A013A83CC
:205160002983D9011D921C92FC0162817381808191810E949D153C01009709F080C1AB81D7
:20518000BC8114968C9187FD66C080FD04C007E0602E712C74C1EB81FC81228533854485C8
:2051A000558586819781A085B185281B390B4A0B5B0BC201A0E0B0E0281739074A075B0754
:2051C00008F42901812F902F9C01190154C1AB81BC8116962D913D914D915C911997DA0177
:2051E000C9019170A070B0700097A105B10509F0E7C0AB81BC81ED91FC91DA01C90119E00F
:20520000B695A795979587951A95D1F792809A949822A1F5211531054105510539F4EB8117
:20522000FC8166857785808991890BC0AB81BC8152964D915D916D917C915597CF010E9496
:20524000DF1C623071058105910548F4EB81FC81848180688483E2E06E2E712C10C16F3F9C
:20526000FFEF7F07FFEF8F07FFEF9F0709F467C0EB81FC81628B738B848B958BAB81BC8112
:205280000D911C91119752962D913D914D915C9155972250304040405040F801828D938DD6
:2052A000A48DB58D0297A109B109281739074A075B07B8F48280682D70E080E090E00E9447
:2052C0008DC79B01AC01F80182A593A5A4A5B5A5280F391F4A1F5B1F2115310541055105BC
:2052E00049F4AB81BC8114968C911497806814968C93B1CF69017A01C90CD11CE11CF11CB4
:205300005201AB2CBB24A694A114B10409F452C0292D30E0C501820F931F682D70E06817FE
:20532000790718F45B01A21AB30AF8018181B101A70196010A2D0E94C568892B49F0AB8101
:20534000BC8114968C911497806814968C9351C0AB81BC81ED91FC918481882331F126A5CB
:2053600037A540A951A92C193D094E095F09C501A0E0B0E0281739074A075B07B0F469E02F
:20538000220F331F441F551F6A95D1F7C101820F931FDF01D296FC019C0120503E4F02C046
:2053A0008D918193E217F307D9F7B501762F6627770F44C0EB81FC81C68AD78AE08EF18EFF
:2053C000AB81BC811696CD90DD90ED90FC90199756964D915D916D917C9159978D919C9137
:2053E0000E944C1B892B49F0EB81FC8184818068848321E0622E712C42C0C601917020E0E2
:2054000032E0281B390BB2012415350508F4B901AB81BC8116968D919C9117979170C296B0
:20542000ED91FC91E80FF91FD1019B0104C081918D932150304021153105C9F7260E371E58
:20544000CB01A0E0B0E0EB81FC812681378140855185280F391F4A1F5B1F268337834087F1
:205460005187E981FA8180819181860F971F91838083461A570A4114510409F0A8CEC3015C
:205480000F900F900F900F90CF91DF911F910F91FF90EF90DF90CF90BF90AF909F908F90B8
:2054A0007F906F905F904F903F902F9008952F923F924F925F926F927F928F929F92AF92DC
:2054C000BF92CF92DF92EF92FF920F931F93DF93CF9300D000D0CDB7DEB79C838B83162F44
:2054E000072F2A013A832983D9011D921C92FC0162817381808191810E949D154C0100978C
:2055000009F0FFC1AB81BC8114968C9187FD7EC081FD04C007E0802E912CF3C1EB81FC81AF
:205520002285338544855585C201A0E0B0E0820F931FA41FB51F82179307A407B50710F41E
:2055400044245524812F902F9C011901B5C1AB81BC8116962D913D914D915C911997DA01D7
:20556000C9019170A070B0700097A105B10509F042C1AB81BC81ED91FC91DA01C90119E02F
:20558000B695A795979587951A95D1F772807A94782209F04EC02115310541055105D9F44F
:2055A000AB81BC811E966D917D918D919C9151976115710581059105F9F4CF0140E050E07A
:2055C00060E070E00E94EC1EEB81FC8166877787808B918B0BC0AB81BC8152964D915D91AC
:2055E0006D917C915597CF010E94EC1E611571058105910509F464C16130710581059105EB
:2056000049F4EB81FC81848180688483E2E08E2E912C77C16F3FFFEF7F07FFEF8F07FFEF69
:205620009F0709F4D1C0EB81FC81628B738B848B958BAB81BC81ED91FC91119726A537A570
:2056400040A951A95696ED90FD900D911C9159972E153F054007510751F4CF0140E050E0AB
:2056600060E070E00E944C1B892B09F0D8C0AB81BC810D911C91119752962D913D914D919E
:205680005C9155972250304040405040F801828D938DA48DB58D0297A109B1092817390728
:2056A0004A075B07B8F46280662D70E080E090E00E948DC79B01AC01F80182A593A5A4A516
:2056C000B5A5280F391F4A1F5B1F211531054105510549F4AB81BC8114968C9114978068F6
:2056E00014968C9393CF69017A01C70CD11CE11CF11C5201AB2CBB24A694A114B10409F426
:205700004BC0272D30E0C501820F931F662D70E06817790718F45B01A21AB30AF801818153
:20572000B101A70196010A2D0E942369892B09F04BC0AB81BC81ED91FC9126A537A540A957
:2057400051A92C193D094E095F09C501A0E0B0E0281739074A075B07D0F4DF01D29669E0A8
:20576000220F331F441F551F6A95D1F7F101E20FF31F9F0120503E4F02C081918D93E21789
:20578000F307D9F7AB81BC81ED91FC911482B501762F6627770F73C0EB81FC81268137814C
:2057A0004085518582859385A485B585281739074A075B07D0F0C80140E050E060E070E031
:2057C0000E944C1B892B49F0AB81BC8114968C911497806814968C9327C0AB81BC81ED9179
:2057E000FC91C6A6D7A6E0AAF1AAEB81FC81C68AD78AE08EF18EAB81BC811696CD90DD90A8
:20580000ED90FC90199756964D915D916D917C9159978D919C910E944C1B892B49F0EB816F
:20582000FC8184818068848381E0882E912C69C0C601917020E032E0281B390BB2012415AD
:20584000350508F4B901AB81BC8116968D919C9117979170C296ED91FC91E80FF91FD10105
:205860009B0104C08D9181932150304021153105C9F7AB81BC81ED91FC91B1E0B483260E19
:20588000371ECB01A0E0B0E0EB81FC812681378140855185280F391F4A1F5B1F268337831F
:2058A00040875187E981FA8180819181860F971F91838083461A570A4114510409F047CE76
:2058C000AB81BC8116962D913D914D915C9119971A968D919D910D90BC91A02D82179307C6
:2058E000A407B50730F4EB81FC812287338744875587AB81BC8114968C91149780621496C3
:205900008C93C4010F900F900F900F90CF91DF911F910F91FF90EF90DF90CF90BF90AF909D
:205920009F908F907F906F905F904F903F902F9008950F93CF93DF93EC0140E050E060E01F
:2059400070E00E944C1B9C01009709F081C08881833009F072C08D81882309F46EC01EA6F1
:205960001FA618AA19AABE016E5C7F4FFB0180E092E001C0119201972FEF8F3F9207D1F76F
:20598000C05DDD4F85E589938AEA8883C153D24082E58AAB8BAB21E62CAB91E49DABCA5EFE
:2059A000DD4F82E78993899399932883C951D2408E85C65EDD4F8883CA51D2408F85C55E45
:2059C000DD4F8883CB51D2408E859F85A889B9899D0144275527C45EDD4F288321968B2FC9
:2059E0009927AA27BB278883CD51D2408A85C25EDD4F8883CE51D2408B85C15EDD4F8883FC
:205A0000CF51D2408A859B85AC85BD859D0144275527C05EDD4F288321968B2F9927AA2736
:205A2000BB278883C152D2402A893B894C895D89898101E00E9423691D82898160E040E000
:205A400050E00E949A69009711F081E090E09C01C901DF91CF910F9108950F931F93CF93DE
:205A6000DF93EC016A817B81888199810E949D159C01009709F05CC08C8185FF59C04A8D9F
:205A80005B8D6C8D7D8D888199810E944C1B9C01009709F04DC00E8D1F8DF801838580628B
:205AA00083878A85848F8B85858F8A859B85AC85BD85CD01AA27BB27868F8A859B85AC85FE
:205AC000BD858B2F9927AA27BB27878F8E85828F8F85838F8E859F85A889B989CD01AA27AE
:205AE000BB27848B8E859F85A889B989CD01AA27BB27892F9927858B0E948B6BF801668B80
:205B0000272F3327278B9C0144275527208F692F772788279927618F8C818F7D8C83E881CA
:205B2000F98181E08483888199810E94992C9C01C901DF91CF911F910F910895CF93DF9301
:205B4000EC010E942D2D9C01009711F419821882C901DF91CF9108955F926F927F928F9293
:205B60009F92AF92BF92CF92DF92EF92FF920F931F93DF93CF93CDB7DEB7A8970FB6F894AD
:205B8000DEBF0FBECDBF3C0178A76FA3DC011D921C926FE1562E54228E01035F1F4F4E71FF
:205BA000CE018796B8010E943A169C01CE0101969AA389A389EA99E09CA38BA3211531051D
:205BC00031F46FA178A5C8010E94E4229C01CF8CD8A02115310529F4C114D10411F426E054
:205BE00030E0452D50E0CA018C719070892B09F48DC02115310589F02430310529F4CE01D2
:205C00000D960E94B6259C01CF8CD8A02115310509F012C1B8E05B2A07C0F60183858171E7
:205C200009F024C152FC1FC153FE80C00E948B6BD6011E966C931E97272F33271F962C93CC
:205C40001F979C014427552750962C935097692F77278827992751966C9351971B961C92AC
:205C60001B975C961C925C975D961C925D975E961C925E975F961C925F9755969C91559716
:205C800080E054962C9130E0822B932BA0E0B0E08C01FF24EE24F601938D80E0228D30E07A
:205CA000822B932BA0E0B0E0E82AF92A0A2B1B2B128E138E148A158AED85FE8581E08483DE
:205CC000E114F1040105110589F186A497A4A0A8B1A8CF01B801A7010E94CC1F9C0100974C
:205CE00009F0AAC0ED85FE850894E108F10801091109E286F38604871587CF01B501A40177
:205D00000E944C1B9C01009789F096C02115310509F092C0D6011B968C9184FF03C024E0D1
:205D200030E08AC051FE02C080FDA0C053FE02C0B0E25B2AED85FE8526A537A540A951A972
:205D4000D3015A962D933D934D935C935D975F96DC92CE925E9714965C92D60155963C914D
:205D6000559720E054968C91549790E0282B392B40E050E0A901332722275B969C915B9771
:205D800080E05A966C9170E0862B972BA0E0B0E0282B392B4A2B5B2BD3011E962D933D9319
:205DA0004D935C935197D6015F962C915F9730E040E050E0522F4427332722275E968C91AD
:205DC00090E0A0E0B0E0DC0199278827282B392B4A2B5B2BD6015C968C9190E0A0E0B0E0DF
:205DE000282B392B4A2B5B2BD6015D969C9180E0A0E0B0E0282B392B4A2B5B2BD3011A9654
:205E00002D933D934D935C931D9716961D921D921D921C92199756961D921D921D921C92B1
:205E200059971196FC93EE938681978113969C938E93129720E030E0C901A8960FB6F89491
:205E4000DEBF0FBECDBFCF91DF911F910F91FF90EF90DF90CF90BF90AF909F908F907F9065
:205E60006F905F90089528E030E0E6CF27E030E0E3CF9C01F999FECF32BD21BDF89A80B571
:205E800008958091431690E008950895AC01893191051CF449E150E005C0893C910514F0C6
:205EA00048EC50E05093C00E4093BF0E80EE9BE06AE173E00E94845F0895EF92FF920F93D0
:205EC0001F93CF93DF93EC01893191051CF4C9E1D0E006C081E0C53FD80714F0C4EFD1E023
:205EE000BE01882777FD8095982F0E94C8C57B018C016091BD0E7091BE0E882777FD8095EB
:205F0000982F0E94C8C59B01AC01C801B7010E942DC59B01AC016091B90E7091BA0E809152
:205F2000BB0E9091BC0E0E94D1C66093B90E7093BA0E8093BB0E9093BC0ED093BE0EC093A4
:205F4000BD0E80EE9BE068E273E0AE010E94845FDF91CF911F910F91FF90EF9008959F92C0
:205F6000AF92BF92CF92DF92EF92FF920F931F93CF93DF93882351F082EE99E165E073E015
:205F80000E94B89582EE99E10E94B7B3E0909D0EF0909E0E00919F0E1091A00E8091910E98
:205FA0009091920EA091930EB091940EE81AF90A0A0B1B0B88279927DC018E199F09A00BE5
:205FC000B10B8093560E9093570EA093580EB093590E8DB79EB707970FB6F8949EBF0FBE11
:205FE0008DBFEDB7FEB73196EE0CFF1C001F111F80910A0290910B02A0910C02B0910D02F7
:20600000CDB7DEB789839A83AB83BC839924939494829582168260E070E080E090E020E0C8
:2060200030E040E050E0AA24BB2465010E94427C1092560E1092570E1092580E1092590E6F
:20604000CDB6DEB60894C11CD11C2091EA013091EB014091EC015091ED01CA01B9010E94C6
:20606000B2C40E9495C57B018C0180910A0290910B02A0910C02B0910D02F60180839183BD
:20608000A283B38394821582168260E070E080E090E020E030E040E050E0AA24BB2465018D
:2060A0000E94427CCDB6DEB60894C11CD11C2091EA013091EB014091EC015091ED01CA0162
:2060C000B9010E94B2C420E030E040E050EC0E94D1C60E9495C57B018C0160910A02709146
:2060E0000B0280910C0290910D0220E030E040EA50E40E942DC5E601688379838A839B8349
:206100009C829D821E8260E070E080E090E020E030E040E050E0AA24BB2465010E94427C6F
:2061200080919D0E90919E0EA0919F0EB091A00E8093560E9093570EA093580EB093590EC7
:20614000EDB7FEB737960FB6F894FEBF0FBEEDBFDF91CF911F910F91FF90EF90DF90CF9096
:20616000BF90AF909F9008959F92AF92BF92CF92DF92EF92FF920F931F93CF93DF9388234B
:2061800051F082EE99E16CE073E00E94B89582EE99E10E94B7B32091990E30919A0E4091BE
:2061A0009B0E50919C0E80918D0E90918E0EA0918F0EB091900E281B390B4A0B5B0B8827A4
:2061C0009927DC01821B930BA40BB50B8093520E9093530EA093540EB093550E8DB79EB7AD
:2061E00007970FB6F8949EBF0FBE8DBFEDB7FEB73196220F331F441F551F80910602909186
:206200000702A0910802B0910902CDB7DEB789839A83AB83BC839924939494829582168296
:2062200060E070E080E090E0EE24FF248701AA24BB2465010E94427C1092520E1092530EC9
:206240001092540E1092550E0DB71EB70F5F1F4F6091E6017091E7018091E8019091E901FA
:2062600020E030E040EA50E40E94D1C60E9495C56B017C0160910602709107028091080274
:206280009091090220E030E040E05FE30E94D1C6F8016083718382839383948215821682F7
:2062A00060E070E080E090E0A7019601EE24FF248701AA24BB2465010E94427C0DB71EB776
:2062C0000F5F1F4F2091E6013091E7014091E8015091E901CA01B9010E94B2C420E030E06F
:2062E00040EA50EC0E94D1C60E9495C56B017C0160910602709107028091080290910902D0
:2063000020E030E040E05FE30E94D1C6E801688379838A839B839C829D821E8260E070E06A
:2063200080E090E0A7019601EE24FF248701AA24BB2465010E94427C0DB71EB70F5F1F4FA9
:206340006091E6017091E7018091E8019091E9010E9495C59B01AC018091060290910702EF
:20636000A0910802B0910902F80180839183A283B38394821582168260E070E080E090E086
:20638000EE24FF2487010E94427C8091990E90919A0EA0919B0EB0919C0E8093520E909304
:2063A000530EA093540EB093550E8DB79EB707960FB6F8949EBF0FBE8DBFDF91CF911F91C4
:2063C0000F91FF90EF90DF90CF90BF90AF909F9008959F92AF92BF92CF92DF92EF92FF9240
:2063E0000F931F93882351F082EE99E163E173E00E94B89582EE99E10E94B7B36091950E63
:206400007091960E8091970E9091980E2091890E30918A0E40918B0E50918C0E621B730BD9
:20642000840B950B22273327A901261B370B480B590B20934E0E30934F0E4093500E509363
:20644000510E2DB73EB7275030400FB6F8943EBF0FBE2DBFEDB7FEB73196660F771F881F44
:20646000991F20910202309103024091040250910502ADB7BEB711962D933D934D935C934B
:2064800014979924939494829582168220E030E040E050E0EE24FF248701AA24BB24650178
:2064A0000E94427C10924E0E10924F0E1092500E1092510E0DB71EB70F5F1F4F6091E20135
:2064C0007091E3018091E4019091E50120E030E040EA50E40E94D1C60E9495C56B017C014E
:2064E0006091020270910302809104029091050220E030E040E05FE30E94D1C6F8016083DB
:20650000718382839383948215821682C701B60120E030E040E050E0EE24FF248701AA24BD
:20652000BB2465010E94427C0DB71EB70F5F1F4F2091E2013091E3014091E4015091E5018B
:20654000CA01B9010E94B2C420E030E040EA50EC0E94D1C60E9495C56B017C016091020215
:2065600070910302809104029091050220E030E040E05FE30E94D1C6D8016D937D938D9322
:206580009C93139714969C92149715969C92159716961C92C701B60120E030E040E050E0E1
:2065A000EE24FF248701AA24BB2465010E94427C0DB71EB70F5F1F4F6091E2017091E3017D
:2065C0008091E4019091E5010E9495C520910202309103024091040250910502F8012083EC
:2065E00031834283538394821582168220E030E040E050E0EE24FF2487010E94427C809179
:20660000950E9091960EA091970EB091980E80934E0E90934F0EA093500EB093510E2DB74F
:206620003EB7295F3F4F0FB6F8943EBF0FBE2DBF1F910F91FF90EF90DF90CF90BF90AF908E
:206640009F9008954F925F926F927F928F929F92AF92BF92CF92DF92EF92FF920F931F936E
:20666000482E562E622E882341F0662359F4442349F4822F0E94E931E0C0662319F0442334
:2066800021F4D8C0442309F4D8C0862D0E94E931862D0E94B4308DB79EB707970FB6F89421
:2066A0009EBF0FBE8DBFCDB6DEB60894C11CD11C6091E2017091E3018091E4019091E50131
:2066C00020E030E048EC52E40E94D1C67B018C0160914E0E70914F0E8091500E9091510E64
:2066E0000E94C8C59B01AC01C801B7010E94B1C40E9495C54B015C016091E6017091E70124
:206700008091E8019091E90120E030E048E453E40E94D1C67B018C016091520E7091530E0C
:206720008091540E9091550E0E94C8C59B01AC01C801B7010E94B1C40E9495C59B01AC010D
:206740008091020290910302A0910402B0910502F60180839183A283B3837724739474827E
:2067600075821682C501B401EE24FF248701AA24BB2465010E94427C8DB79EB707960FB6E4
:20678000F8949EBF0FBE8DBF862D0E94AF2FEDB7FEB737970FB6F894FEBF0FBEEDBFCDB693
:2067A000DEB60894C11CD11C6091560E7091570E8091580E9091590E0E94C8C59B01AC01AD
:2067C0006091EA017091EB018091EC019091ED010E94B1C40E9495C57B018C0180910A02AA
:2067E00090910B02A0910C02B0910D02F60180839183A283B38374827582168260E070E05E
:2068000080E090E020E030E040E050E0AA24BB2465010E94427C8DB79EB707960FB6F8944E
:206820009EBF0FBE8DBF442041F0552031F0862D0E94E931862D0E94B4301092171A1F918C
:206840000F91FF90EF90DF90CF90BF90AF909F908F907F906F905F904F900895AF92BF92D5
:20686000CF92DF92EF92FF920F931F9320914E0E30914F0E4091500E5091510EA090070E01
:20688000B090080EC090090ED0900A0E8091060E882359F40F2EF0E0EF2EF0E0FF2EF0E8A7
:2068A0000F2FFFE31F2FF02D0AC00F2EF0E7EF2EF2E4FF2EF1E20F2FFDE31F2FF02DCA0128
:2068C000B9010E94C8C5A60195010E94D1C6A80197010E94D1C69B01AC0180EE9BE06EE45B
:2068E00073E002E00E94B1652091520E3091530E4091540E5091550EA0900B0EB0900C0E5E
:20690000C0900D0ED0900E0E8091060E882359F40F2EF0E0EF2EF0E0FF2EF0E80F2FFFE354
:206920001F2FF02D0AC00F2EF0E7EF2EF2E4FF2EF1E20F2FFDE31F2FF02DCA01B9010E946B
